:020000040800F2
:10000000B0060020450100084125000843250008EE
:10001000472500084B2500084F2500080000000078
:100020000000000000000000000000005325000850
:10003000552500080000000057250008DD2C0008A9
:100040005F0100085F0100085F0100085F01000810
:100050005F0100085F0100085F0100085F01000800
:100060005F0100085F0100085F0100085F010008F0
:100070005F0100085F0100085F0100085F010008E0
:100080005F0100085F0100085F0100085F010008D0
:100090005F0100085F0100085F0100085F010008C0
:1000A0005F010008192700085F0100085F010008D0
:1000B0005F01000837300008153000085F010008B4
:1000C0005F0100085F0100085F0100085F01000890
:1000D0005F010008592500083D2600085F0100085F
:1000E0005F0100085F0100085F0100085F01000870
:1000F0005F0100085F0100085F0100085F01000860
:100100005F0100085F0100083F2600085F0100084A
:100110005F0100085F0100085F0100085F0100083F
:100120005F0100085F0100085F0100085F0100082F
:10013000DFF80CD004F06CF9004800473D230008BC
:10014000B00600200648804706480047FEE7FEE765
:10015000FEE7FEE7FEE7FEE7FEE7FEE7FEE7FEE777
:1001600045020008310100080CB500200190009004
:100170006B48006840F480306949086000BF6848F7
:10018000006800F4003000900198401C0190009835
:1001900018B90198B0F5A06FF1D16148006810F46A
:1001A000003F02D00120009001E000200090009864
:1001B000012842D15B48006840F0100059490860AE
:1001C0000846006820F0030008600846006840F018
:1001D000020008605248406851494860084640683B
:1001E00048600846406840F48060486008464068BF
:1001F00020F47C1048600846406840F4E8104860ED
:100200000846006840F08070086000BF44480068FD
:1002100010F0007FFAD04248406820F003004049C7
:1002200048600846406840F00200486000BF3C4813
:10023000406800F00C000828F9D10CBD10B5FFF79C
:1002400093FF10BD10B53648006840F001003449F6
:10025000086008464068344908403149486008460B
:100260000068324908402E4908600846006820F4BA
:10027000802008600846406820F4FE0048604FF483
:100280001F008860FFF7DAFF4FF000602849086020
:1002900010BD10B5002100200022214B5B6803F047
:1002A0000C0121B1042906D0082928D107E0214BEF
:1002B000214C236027E01F4B1F4C236023E0184B89
:1002C0005B6803F47010164B5B6803F48032022302
:1002D00003EB904022B9194B4343174C23600DE0C8
:1002E0000F4B5B6813F4003F04D0144B4343124C94
:1002F000236003E00F4B43430F4C236003E00D4B9F
:100300000D4C236000BF00BF054B5B68C3F30313B4
:100310000B4CE15C084B1B68CB40074C236010BDC5
:1003200000100240002002400000FFF8FFFFF6FE30
:1003300008ED00E000127A000000002000093D00F6
:100340000400002031490143314A1160704770B503
:10035000002100230F22C4780CB32D4C246804F430
:10036000E064C4F5E064210AC1F10403CA404478A2
:1003700004FA03F18478144021430901254C0678DE
:10038000A155047804F01F050124AC4005786D11D7
:100390004FF0E02606EB8505C5F8004109E004783A
:1003A00004F01F050124AC401B4D0678761145F87A
:1003B000264070BD194A0A400243154B1B1F1A60A4
:1003C000704739B1124A121D12680243104B1B1DAF
:1003D0001A6006E00E4A121D126882430C4B1B1D68
:1003E0001A607047042808D14FF0E021096941F0F4
:1003F00004014FF0E022116107E04FF0E0210969AC
:1004000021F004014FF0E022116170470000FA056D
:100410000CED00E000E400E080E100E080FFFF1F61
:1004200001460020FE4A106800F0380008431060C2
:100430007047FB49096821F00801F94A116011462B
:100440000968014311607047F549096821F01001FE
:10045000F34A116011460968014311607047F14881
:10046000EF494860F04848607047EE48EC49486002
:10047000ED4848607047EA48006940F08000E8496C
:1004800008617047E648006940F08000E44908616F
:1004900070470420E249C96811F0010F01D0012022
:1004A0000EE0DF49C96811F0040F01D0022007E017
:1004B000DB49C96811F0100F01D0032000E00420CF
:1004C000704700B502460423FFF7E3FF034603E04D
:1004D000FFF7DFFF0346521E012B01D1002AF7D19F
:1004E00002B90523184600BD30B5044604254FF473
:1004F0003020FFF7E6FF0546042D17D1C8480069F4
:1005000040F00200C649086108464461006940F0B5
:10051000400008614FF43020FFF7D3FF0546C04884
:10052000006941F6FD710840BD490861284630BDAB
:1005300010B504244FF43020FFF7C3FF0446042C09
:1005400016D1B748006940F00400B5490861084673
:10055000006940F0400008614FF43020FFF7B1FF20
:100560000446AF48006941F6FB710840AC49086198
:10057000204610BD00B502460423FFF78AFF03465C
:1005800003E0FFF786FF0346521E012B01D1002A2C
:10059000F7D102B90523184600BD10B504244FF465
:1005A0003020FFF7E7FF0446042C16D19C48006971
:1005B00040F004009A4908610846006940F0400094
:1005C00008614FF43020FFF7D5FF044694480069D6
:1005D00041F6FB71084092490861204610BD002099
:1005E0008F49C96911F0020F01D0012000E00020FD
:1005F000704730B5A5250424FFF7F1FF00B10025B1
:100600004FF43020FFF75DFF0446042C3AD18548B3
:1006100083498860844888600846006940F020006B
:1006200008610846006940F0400008614FF430203E
:10063000FFF747FF0446042C1BD17948006941F6B7
:10064000DF710840764908610846006940F01000F3
:10065000086176480580E002FFF733FF0446052C69
:1006600010D06F48006941F6EF7108406C4908618D
:1006700008E0052C06D06A48006941F6EF71084091
:1006800067490861204630BD78B506460C4604250A
:1006900000200090E802FFF714FF0546042D24D146
:1006A0005F48006940F001005D4908613480E8025C
:1006B000FFF707FF0546042D10D1B01C0090200C59
:1006C00000990880E802FFF7FCFE054654480069DF
:1006D00041F6FE7108405249086106E05048006941
:1006E00041F6FE7108404E490861284678BD70B554
:1006F00004460D460426F002FFF7E3FE0646042EEC
:1007000011D14748006940F0010045490861258042
:10071000F002FFF7D6FE06464148006941F6FE7139
:1007200008403F490861304670BD70B505460E4629
:100730000424E002FFF7C5FE0446042C17D1394813
:1007400037498860384888600846006940F01000E2
:1007500008612E80E002FFF7B4FE0446052C06D0A7
:100760002F48006941F6EF7108402D490861204685
:1007700070BD2DE9F04304464FF6FF763746B0468C
:10078000B1460425E443E6B2C4F30727C4F307489F
:100790004FEA1469E802FFF794FE0546042D49D19B
:1007A00020481F498860204888600846006940F05A
:1007B00010000861FF2E06D01C4808300680E802B1
:1007C000FFF77FFE0546042D08D1FF2F06D01748FE
:1007D0000A300780E802FFF774FE0546042D0AD1AF
:1007E000B8F1FF0F07D011480C30A0F80080E802E4
:1007F000FFF767FE0546042D0AD1B9F1FF0F07D0B8
:100800000A480E30A0F80090E802FFF75AFE0546AD
:10081000052D0FD00248006941F6EF71084007E04E
:100820000020024023016745AB89EFCD00F8FF1F90
:10083000664908612846BDE8F08330B505460424C2
:100840004FF43020FFF73DFE0446042C41D16048B0
:100850005E4988605F4888600846006940F0200073
:1008600008610846006940F0400008614FF43020FC
:10087000FFF727FE0446042C22D15448006941F6B4
:10088000DF710840514908610846006940F01000D6
:1008900008611DB100205049088002E0A5204E49A2
:1008A00008804FF43020FFF70CFE0446052C10D0D2
:1008B0004648006941F6EF7108404449086108E084
:1008C000052C06D04148006941F6DF7108403F49D8
:1008D0000861204630BDF0B505460E461746042493
:1008E0003B483A4988603B488860E002FFF7E9FDF1
:1008F0000446042C19D13548006940F010003349F2
:10090000086147F0F800304328433349891C0880C8
:10091000E002FFF7D6FD0446052C06D02B480069FF
:1009200041F6EF710840294908612046F0BD27488B
:10093000C069800870472548006A70470020234935
:10094000096811F0200F01D0012000E0002070475D
:1009500029B11E4A126902431C4B1A6104E01B4A6A
:1009600012698243194B1A61704701460020012920
:1009700008D1164AD26912F0010F01D0012008E017
:10098000002006E0114AD2680A4201D0012000E0AE
:10099000002070470D49C860704704200B49C968A2
:1009A00011F0010F01D001200EE00849C96811F0D3
:1009B000040F01D0022007E00449C96811F0100FAC
:1009C00001D0032000E00420704700000020024016
:1009D00023016745AB89EFCD00F8FF1F10B5044632
:1009E000CA48844208D10121042000F047FB0021BD
:1009F000042000F043FB46E0C548844208D10121B1
:100A0000082000F03BFB0021082000F037FB3AE013
:100A1000C048844208D10121102000F02FFB0021A2
:100A2000102000F02BFB2EE0BB48844208D10121AE
:100A3000202000F023FB0021202000F01FFB22E0FB
:100A4000B648844208D10121402000F017FB002164
:100A5000402000F013FB16E0B148844208D1012188
:100A6000802000F00BFB0021802000F007FB0AE053
:100A7000AC48844207D10121801500F0FFFA002123
:100A8000A01500F0FBFA10BD10B50121084600F0DA
:100A9000F5FA0021012000F0F1FA10BD2DE9F04136
:100AA000024600250026002000230024002791F89C
:100AB00003C00CF00F0591F803C01CF0100F03D019
:100AC00091F802C04CEA050591F800C0BCF1000F96
:100AD00031D0146800202BE04FF0010C0CFA00F329
:100AE000B1F800C00CEA03069E4220D183004FF00B
:100AF0000F0C0CFA03F7BC4305FA03FC4CEA0404A0
:100B000091F803C0BCF1280F06D14FF0010C0CFA8C
:100B100000FCC2F814C00AE091F803C0BCF1480F11
:100B200005D14FF0010C0CFA00FCC2F810C0401CBB
:100B30000828D1D31460B1F800C0BCF1FF0F34DD38
:100B4000546800202EE000F1080C4FF0010808FA6C
:100B50000CF3B1F800C00CEA03069E4221D18300D9
:100B60004FF00F0C0CFA03F7BC4305FA03FC4CEAF8
:100B7000040491F803C0BCF1280F05D100F1080C62
:100B800008FA0CF8C2F8148091F803C0BCF1480FC1
:100B900007D100F1080C4FF0010808FA0CF8C2F870
:100BA0001080401C0828CED35460BDE8F0814FF679
:100BB000FF710180022181700421C17070470246DB
:100BC000002093680B4201D0012000E00020704714
:100BD0000146886880B2704702460020D3680B4205
:100BE00001D0012000E0002070470146C86880B2B3
:100BF000704701617047416170470AB1016100E0CF
:100C000041617047C16070474FF480320A4382618E
:100C10008161826182698269704702460020424B8D
:100C200018684FF68073184040EA021008433E4BA4
:100C3000186070473D49C8617047F0B50A46002307
:100C400000240021002500F00046B6F1004F02D13B
:100C5000354EF16901E0344E7168C0F3034583B24B
:100C600000F44016B6F5401F08D121F070612E4EF9
:100C7000766826F070662C4F7E6012E000F48016D5
:100C8000B6F5801F06D1032606FA05F4A14341F00C
:100C9000706106E0460D360103FA06F6B14341F0F5
:100CA000706122B1460D360103FA06F6314300F0B9
:100CB0000046B6F1004F02D11B4EF16101E01A4E21
:100CC0007160F0BD30B500228B071C0F0F2303FAB3
:100CD00004F2154B08338C1053F824309343124C14
:100CE00008348D1044F8253023468C1053F82430F6
:100CF0008C07240F00FA04F423430B4C08348D10A6
:100D000044F8253030BD0A490860704700080140AA
:100D1000000C014000100140001401400018014087
:100D2000001C014000200140000001400000204262
:100D3000DC0020420E49086070470D49486070474A
:100D40000B49886070474AF6AA2009490860704735
:100D50004CF6CC4006490860704701460020044A22
:100D6000D2680A4201D0012000E000207047000054
:100D700000300040DD48006840F00100DB490860B9
:100D800008464068DA490840D84948600846006883
:100D9000D8490840D54908600846006820F48020FA
:100DA00008600846406820F4FE0048604FF41F00C9
:100DB00088607047CD49096821F48031CB4A1160C1
:100DC0001146096821F480211160B0F5803F03D0FD
:100DD000B0F5802F0ED106E0C449096841F4803196
:100DE000C24A116007E0C149096841F4A021BF4A25
:100DF000116000E000BF00BF704710B5014600223F
:100E0000002300204A11012A02D1B84C236806E0D1
:100E1000022A02D1B54C236A01E0B44C636A01F0A6
:100E20001F02012494401C4201D0012000E0002058
:100E300010BD38B5002000900024002500BF3120EF
:100E4000FFF7DBFF05460098401C00900098B0F5C6
:100E5000A06F01D0002DF2D03120FFF7CEFF08B1F6
:100E6000012400E00024204638BD014600209F4AAE
:100E7000106820F0F80040EAC100106070479E49F9
:100E80000860704702460020984B586820F47C1098
:100E900042EA01031843954B58607047964908662B
:100EA000704701460020914A506820F00300084333
:100EB000506070478D48406800F00C007047014654
:100EC00000208A4A506820F0F000084350607047C4
:100ED00001460020854A506820F4E06008435060D5
:100EE000704701460020814A506820F4605040EA73
:100EF000C1005060704729B17C4A527A02437B4B53
:100F00005A7204E0794A527A8243784B5A72704797
:100F10007A490860704701460020744A506820F4FE
:100F200040400843506070470021754A11706F4A75
:100F300082F82010012802D0042808D103E0012102
:100F40006F4A117004E005216D4A117000E000BF86
:100F500000BF70476B49086070476449096A0143E4
:100F6000624A11627047674944390860704730B57A
:100F700000210022002400235C4D6D6805F00C0167
:100F800021B1042905D0082923D105E05E4D056073
:100F900022E05D4D05601FE0544D6D6805F4701250
:100FA000524D6D6805F48034022505EB92421CB960
:100FB000564D554305600BE04C4D6D6815F4003FF0
:100FC00003D0524D5543056002E04F4D5543056037
:100FD00002E04D4D056000BF00BF444D6D6805F057
:100FE000F00109094A4D6B5C0568DD4045603F4DE5
:100FF0006D6805F4E061090A454D6B5C4568DD40AC
:1010000085603A4D6D6805F46051C90A404D6B5CCE
:101010004568DD40C560354D6D6805F44041890B7C
:101020003C4D6B5CC568B5FBF3F5056130BD29B17E
:101030002E4A526902432D4B5A6104E02B4A5269F1
:1010400082432A4B5A61704729B1284A9269024368
:10105000264B9A6104E0254A92698243234B9A61A8
:10106000704729B1214AD2690243204BDA6104E07A
:101070001E4AD26982431D4BDA61704729B11B4A6F
:10108000D2680243194BDA6004E0184AD2688243FE
:10109000164BDA60704729B1144A12690243134BA8
:1010A0001A6104E0114A12698243104B1A617047B9
:1010B00014494039086070470F49C86470470B49AC
:1010C000C87170470948406A40F08070074948621B
:1010D000704701460020054A92680A4201D001206B
:1010E00000E00020704701498872704700100240FC
:1010F0000000FFF8FFFFF6FE00004242D800424227
:10110000201002408004424200127A0000093D0093
:10111000140000202400002010B50446FE4884423C
:1011200008D10121C014FFF7A9FF0021E014FFF747
:10113000A5FFC4E0B4F1804F08D101210846FFF7B4
:10114000AAFF00210120FFF7A6FFB8E0F348844280
:1011500008D101210220FFF79EFF00210220FFF7A6
:101160009AFFACE0EE48844208D101210420FFF749
:1011700092FF00210420FFF78EFFA0E0E94884429F
:1011800008D101210820FFF786FF00210820FFF782
:1011900082FF94E0E448844208D101211020FFF747
:1011A0007AFF00211020FFF776FF88E0DF488442B5
:1011B00008D101212020FFF76EFF00212020FFF73A
:1011C0006AFF7CE0DA48844208D101214014FFF72D
:1011D00055FF00216014FFF751FF70E0D5488442AD
:1011E00009D10121C804FFF749FF00214FF4002075
:1011F000FFF744FF63E0D048844209D1012108058C
:10120000FFF73CFF00214FF48010FFF737FF56E057
:10121000CA48844209D101214805FFF72FFF002168
:101220004FF40010FFF72AFF49E0C548844208D177
:1012300001214020FFF72FFF00214020FFF72BFF67
:101240003DE0C048844208D101218020FFF723FF00
:1012500000218020FFF71FFF31E0BB48844208D106
:1012600001218015FFF717FF0021A015FFF713FFDD
:1012700025E0B648844209D101210804FFF7FEFEAB
:1012800000214FF48030FFF7F9FE18E0B0488442A7
:1012900009D101214804FFF7F1FE00214FF400308D
:1012A000FFF7ECFE0BE0AB48844208D10121880433
:1012B000FFF7E4FE00214FF48020FFF7DFFE10BDB2
:1012C00000220288944B98420ED0994B98420BD042
:1012D000B0F1804F08D0914B984205D0904B984286
:1012E00002D0904B984204D14FF68F731A404B882E
:1012F0001A438D4B984207D08C4B984204D04FF63E
:10130000FF431A40CB881A4302808B8883850B8861
:101310000385814B98420BD0854B984208D08B4B6C
:10132000984205D08A4B984202D08A4B984201D10C
:101330000B7A038601238382704770B50024002254
:101340000023058C4FF6FE7635400584028C838899
:10135000048B4FF68F752C40B51E2C400D882C4306
:10136000751E2A400D892A434D882A436A4DA8429A
:101370000BD06F4DA84208D0744DA84205D0744DD3
:10138000A84202D0734DA84213D14FF6F7752A40F8
:101390004D892A434FF6FB752A408D882A434FF624
:1013A000FF652B404FF6FF552B408D892B43CD8990
:1013B0002B4383800483CD888586028470BD70B5FD
:1013C000002400220023058C4FF6EF76354005847B
:1013D000028C8388048B48F6FF752C404FF6FF453E
:1013E0002C400D884FF6FF7606EA05252C434FF674
:1013F000DF752A400D8906EA05152A434D8806EA5D
:1014000005152A43444DA84202D0494DA8421DD19A
:101410004FF67F752A404D894FF6FF7606EA05158F
:101420002A434FF6BF752A408D8806EA05152A43E0
:101430004FF6FF352B404FF2FF752B408D8906EAA2
:1014400085052B43CD8906EA85052B4383800483DC
:10145000CD880587028470BD70B50024002200236A
:10146000058C4FF6FF6635400584028C8388848B9B
:101470004FF68F752C404FF6FC752C400D882C4391
:101480004FF6FF552A400D894FF6FF7606EA0525EF
:101490002A434D8806EA05252A431F4DA84202D05B
:1014A000234DA8421DD14FF2FF752A404D894FF6BA
:1014B000FF7606EA05252A434FF6FF352A408D8838
:1014C00006EA05252A434EF6FF752B404DF6FF75BB
:1014D0002B408D8906EA05152B43CD8906EA0515B3
:1014E0002B4383808483CD888587028470BD70B54B
:1014F000002200230024058C4EF6FF76354005843B
:10150000038C8488828B48F6FF752A404FF6FF458E
:101510002A400D8820E00000002C0140000400401B
:1015200000080040000C0040001000400014004083
:1015300000340140004C0140005001400054014083
:1015400000180040001C0040002000400040014006
:1015500000440140004801404FF6FF7606EA0525A9
:101560002A434DF6FF752B400D8906EA05352B43BE
:101570004D8806EA05352B43FA4DA84202D0FA4DB4
:10158000A84208D14BF6FF752C408D894FF6FF76A7
:1015900006EA85152C4384808283CD88A0F84050CC
:1015A000038470BD828B4FF2FF331A408283828B9B
:1015B0004FF6FF7303EA01231A4382837047F0B5A5
:1015C0000C461546002200210026078C4EF6FF7CB3
:1015D00007EA0C070784828B018C4FF6FF7707EA36
:1015E000043640F6FF473A404FF6FF7707EA0527F3
:1015F0003A434FF6FF7707EA03373A43D94FB842E9
:101600000ED0D94FB8420BD0B0F1804F08D0D74F91
:10161000B84205D0D64FB84202D0D64FB84206D114
:101620004DF6FF77394046F48057394305E047F6D9
:10163000FF57394044F48057394382830184F0BD19
:10164000828B4FF6F3731A408283828B0A43828324
:101650007047F0B50C461546002200210026078C85
:101660004FF6FF6C07EA0C070784828B018C4FF65C
:10167000FF7707EA04264FF60C773A404FF6FF77DC
:1016800007EA03172F433A43B64FB8420ED0B64F7E
:10169000B8420BD0B0F1804F08D0B44FB84205D05B
:1016A000B34FB84202D0B34FB84206D14FF6FF57FE
:1016B000394046F48077394305E04FF2FF5739400F
:1016C00044F48077394382830184F0BD028B4FF26A
:1016D000FF331A400283028B4FF6FF7303EA0123A4
:1016E0001A4302837047F0B50C46154600220021CC
:1016F0000026078C4FF6EF7C07EA0C070784028B65
:10170000018C4FF6FF7707EA041640F6FF473A4090
:101710004FF6FF7707EA03373A434FF6FF7707EABA
:1017200005273A438F4FB8420ED08F4FB8420BD0A7
:10173000B0F1804F08D08D4FB84205D08C4FB842E1
:1017400002D08C4FB84206D14FF6DF77394046F0D1
:101750001007394305E04FF65F77394044F0100732
:10176000394302830184F0BD028B4FF6F3731A40B4
:101770000283028B0A4302837047F0B50C4615467C
:1017800000220021068C4FF6FE773E400684028B35
:10179000018C4FF60C7632407E1C06EA03162E436F
:1017A0003243704EB0420ED06F4EB0420BD0B0F10B
:1017B000804F08D06D4EB04205D06D4EB04202D081
:1017C0006C4EB04206D14FF6FD76314044F0010632
:1017D000314305E04FF6F576314044F001063143E0
:1017E00002830184F0BD70B505460C465D48854214
:1017F0000ED05D4885420BD0B5F1804F08D05B48D4
:10180000854205D05A48854202D05A48854200D1C7
:1018100000E000BF208850B92389A288618828464B
:10182000FFF7ABFFE1882846FFF79EFF25E0208801
:1018300004280AD12389A28861882846FFF753FF2C
:10184000E1882846FFF742FF17E0208808280AD1E0
:101850002389A28861882846FFF7FBFEE188284695
:10186000FFF7EEFE09E02389A28861882846FFF78A
:10187000A6FEE1882846FFF795FE70BD2DE9F041F0
:1018800005460C4600260127608808B9022600E0BC
:101890000026A088012801D1022700E00127208826
:1018A000A0B92389A28861882846FFF766FFE188EE
:1018B0002846FFF759FF23893A4631462846FFF765
:1018C00012FFE1882846FFF701FF13E02389A28871
:1018D00061882846FFF707FFE1882846FFF7F6FEF4
:1018E00023893A4631462846FFF747FFE1882846D4
:1018F000FFF73AFFBDE8F0810A884B881A438B88CE
:101900001A43CB881A430B891A434B891A438B8994
:101910001A43A0F8442070474FF6FF7181800021E0
:101920000180C180418001727047002101804180A7
:101930008180C180018141818181C1817047002105
:1019400001804180012181800021C1800181704797
:101950000021018041808180C1800181418181819C
:1019600070470000002C014000340140000400409A
:1019700000080040000C004021B1028842F0010242
:10198000028004E002884FF6FE731A40028070471E
:1019900031B1B0F8442042F40042A0F8442005E000
:1019A000B0F84420C2F30E02A0F8442070471AB1E8
:1019B00083890B43838102E083898B438381704752
:1019C0008182704741EA0203A0F8483070471AB19B
:1019D00083890B43838102E083898B438381704732
:1019E00001894FF6F8721140018170470A460021C3
:1019F00001894FF68F73194011430181704730B54B
:101A000004460D4629462046FFF7F0FF208940F0A6
:101A10000700208130BD2DE9F04104460D461646F1
:101A20001F46602D06D13B46012231462046FFF776
:101A30005AFE05E03B46012231462046FFF79DFE57
:101A400029462046FFF7D2FF208940F00700208179
:101A5000BDE8F08130B50C4600210189C9B24FF6CE
:101A6000FF7505EA0325154325432943018130BD50
:101A70002DE9F04105460E46174698460024434698
:101A80003A4631462846FFF7E5FF2C894FF6F870B5
:101A9000044044F007044FF68F70044044F0700493
:101AA0002C81BDE8F081F0B504460D4616461F4670
:101AB0003B46324629462046FFF7CCFF208940F4BA
:101AC00080402081F0BD0185828270470A46002156
:101AD00001884FF68F731940114301807047F0B5AC
:101AE0000C4615461E460021002200230189028B68
:101AF000038C4FF6F877394021434FF6FC473A40C4
:101B000040F201173A434FF6DD773B404FF6FF773F
:101B100007EA06172F433B43018102830384F0BD8C
:101B20000A460021018B4FF68F7319401143018340
:101B300070470A460021018B48F6FF7319404FF6A3
:101B4000FF7303EA02231943018370470A46002109
:101B5000818B4FF68F7319401143818370470A467A
:101B60000021818B48F6FF7319404FF6FF7303EA9B
:101B7000022319438183704721B1028842F0800219
:101B8000028004E002884FF67F731A40028070479B
:101B900021B1828842F00402828004E082884FF6FC
:101BA000FB731A408280704721B1828842F008029C
:101BB000828004E082884FF6F7731A408280704773
:101BC00021B1828842F00102828004E082884FF6CF
:101BD000FE731A40828070470A460021018B4FF63F
:101BE000F77319401143018370470A460021018BA6
:101BF0004FF2FF7319404FF6FF7303EA02231943B4
:101C0000018370470A460021818B4FF6F773194014
:101C10001143818370470A460021818B4FF2FF7385
:101C200019404FF6FF7303EA02231943818370477B
:101C30000A460021018B4FF6FB73194011430183C3
:101C400070470A460021018B4FF6FF3319404FF6CB
:101C5000FF7303EA02231943018370470A460021F8
:101C6000818B4FF6FB7319401143818370470A46FD
:101C70000021818B4FF6FF3319404FF6FF7303EAC3
:101C800002231943818370470A460021018B4FF6D6
:101C90007F7319401143018370470A460021018B6D
:101CA000C1F30E014FF6FF7303EA022319430183C8
:101CB00070470A460021818B4FF67F73194011430C
:101CC000818370470A460021818BC1F30E014FF6D4
:101CD000FF7303EA02231943818370470A460021F8
:101CE000018C4FF6FD7319401143018470470A4679
:101CF0000021018C4FF6F77319401143018470479E
:101D00000A460021018C4FF6DF7319404FF6FF732E
:101D100003EA02131943018470470A460021018C2B
:101D20004FF67F7319404FF6FF7303EA021319430E
:101D3000018470470A460021018C4FF6FF53194079
:101D40004FF6FF7303EA02231943018470470A46E2
:101D50000021018C4FF2FF7319404FF6FF7303EA25
:101D600002231943018470470A460021018C4DF675
:101D7000FF7319404FF6FF7303EA023319430184DE
:101D8000704730B5002301248C40A3B2048C9C43DF
:101D90000484048C02FA01F5ADB22C43048430BDF6
:101DA00030B5002304248C40A3B2048C9C430484EB
:101DB000048C02FA01F5ADB22C43048430BD70B539
:101DC0000346002000241846183001258D40ACB28F
:101DD0001D8CA5431D8409B1082909D100EB6100C0
:101DE000056825F0700505600568154305600EE07F
:101DF0000D1FC5F34E052844056825F4E045056030
:101E000005684FF6FF7606EA02263543056070BD89
:101E100021B1028842F00202028004E002884FF6FB
:101E2000FD731A400280704721B1028842F004021B
:101E3000028004E002884FF6FB731A40028070476C
:101E400021B1828842F08002828004E082884FF6CD
:101E50007F731A408280704702884FF6F7731A40EA
:101E6000028002880A430280704782884FF68F738F
:101E70001A40828082880A438280704702894FF626
:101E8000F8731A40028102890A430281704702896D
:101E90004FF67F731A40028102890A43028170471C
:101EA00081847047818570478186704701877047BC
:101EB00081877047A0F84010704702884FF6FF43B3
:101EC0001A40028002880A43028070470146888EC9
:101ED00070470146088F70470146888F704701465A
:101EE000B1F8400070470146888C70470146088D64
:101EF000704702460020138A0B4201D0012000E007
:101F000000207047CA430282704730B50246002065
:101F100000230024158A05EA0103958905EA0104D6
:101F200013B10CB1012000E0002030BDCA43028291
:101F30007047000010B50446FB48844209D10121D6
:101F40008803FFF79BF800214FF48040FFF796F8D5
:101F500032E0F648844209D101214804FFF79BF89A
:101F600000214FF40030FFF796F825E0F048844256
:101F700009D101218804FFF78EF800214FF4802059
:101F8000FFF789F818E0EB48844209D10121C80421
:101F9000FFF781F800214FF40020FFF77CF80BE0F9
:101FA000E548844208D101210805FFF774F80021B3
:101FB0004FF48010FFF76FF810BD2DE9F04786B0A1
:101FC00005460E460024A24600BFA1460027B08960
:101FD00000B100BF2F462C8A4CF6FF700440F088F9
:101FE00004432C82AC894EF6F3100440B08831894A
:101FF0000843718908430443AC81AC8A4FF6FF4023
:102000000440B0890443AC8201A8FEF7B0FFC64883
:10201000874202D1DDF810A001E0DDF80CA0A8890C
:1020200010F4004F08D00AEBCA0000EB0A10316828
:102030004900B0FBF1F807E00AEBCA0000EB0A1018
:1020400031688900B0FBF1F86420B8FBF0F00401BE
:102050002009642101FB1089A88910F4004F08D0E1
:10206000322000EBC900B0FBF1F000F007000443A0
:1020700008E0322000EB09106421B0FBF1F000F021
:102080000F0004432C8106B0BDE8F0874FF41651D1
:10209000016000218180C18001810C2141810021EA
:1020A0008181704710B502460020108A4FF2FF036D
:1020B00018400B884C8823438C882343CC882343C7
:1020C0001843108210BD0021018041808180C180B1
:1020D000704721B1828942F40052828104E08289F2
:1020E0004DF6FF731A4082817047F0B50346002415
:1020F000002600250020A1F510676A3F00D100BF2F
:102100001846C1F3421401F01F06012707FA06F52D
:10211000012C01D10C3004E0022C01D1103000E080
:1021200014301AB107682F43076002E00768AF4315
:102130000760F0BD1AB1838A0B43838202E0838A71
:102140008B4383827047028A4FF6F0731A400282F3
:10215000028A0A430282704782894FF2FF731A4053
:10216000828182890A438281704721B1828942F04B
:102170000202828104E082894FF6FD731A40828157
:102180007047028A4FF6DF731A400282028A0A43BE
:102190000282704721B1028A42F48042028204E046
:1021A000028A4BF6FF731A4002827047C1F308029D
:1021B0008280704701468888C0F308007047818993
:1021C00041F0010181817047028BD2B20283028B00
:1021D00042EA012202837047028B02F47F420283AB
:1021E000028B0A430283704721B1828A42F02002A7
:1021F000828204E0828A4FF6DF731A40828270473F
:1022000021B1828A42F01002828204E0828A4FF673
:10221000EF731A408282704721B1828A42F008022D
:10222000828204E0828A4FF6F7731A4082827047F6
:1022300021B1828942F40042828103E08289C2F3A3
:102240000E028281704721B1828A42F4006282824A
:1022500004E0828A4FF2FF731A4082827047828ABA
:102260004FF6FB731A408282828A0A438282704749
:1022700021B1828A42F00202828204E0828A4FF611
:10228000FD731A408282704702460020B1F5007F3C
:1022900000D100BF13880B4201D0012000E00020D4
:1022A000704701F40072B2F5007F00D100BFCA434D
:1022B0000280704770B502460024002300250020EC
:1022C000A1F510666A3E00D100BFC1F3421501F0CE
:1022D0001F03012606FA03F3012D02D1968933402C
:1022E00006E0022D02D1168A334001E0968A33407F
:1022F0000C12012606FA04F41688344013B10CB10E
:10230000012000E0002070BD10B500220023A1F5DF
:1023100010646A3C00D100BF0A1201249440A3B2A9
:10232000DC43048010BD0000003801400044004040
:1023300000480040004C00400050004000250026AE
:102340000024002700F0F4FF00F0F6FC00F045FD4B
:1023500001F047F801F086F801F066F800F0B6FFEA
:1023600000F060FF00F014FF01F0B7F801F0AEFBE1
:1023700001F0F5FB00F088FCB6E05C48007810F056
:10238000010F50D05A4800685A4908605A480068FE
:102390005A4908605A4800685A4908605A48006813
:1023A0005A4908605A4800685A490860002419E0F0
:1023B0005048005D584908555048015D564A201D57
:1023C00011545048015D04F1080011544F48015D5B
:1023D00004F10C0011544F48015D04F11000115438
:1023E000601CC4B2042CE3DB0A204B4908750026AC
:1023F00011E040214948FFF754FF4748815D4748B5
:10240000FFF7D4FE00BF40214448FFF73DFF0028FE
:10241000F9D0701CC6B2152EEBDB3448007800F002
:10242000FE00324908703148007810F0020F0BD0DE
:102430003B4801683B48006801F0FEFB2B480078F0
:1024400000F0FD00294908702848007810F0080FB6
:1024500025D040213148FFF724FF00270CE0002160
:102460002E48FFF7A3FE00BF40212C48FFF70CFFCA
:102470000028F9D0781CC7B2032FF0DB0A212748C7
:10248000FFF794FE00BF40212448FFF7FDFE00281F
:10249000F9D01648007800F0F70014490870224877
:1024A000008810F4004F19D000250AE01F48405D55
:1024B0001F4948551D49281D085C1E494855681C80
:1024C000C5B2042DF2DB1A4800681B4908601948A0
:1024D00000681A490860002013490880154A1168ED
:1024E000134A106800F0C1FA47E7000041000020DD
:1024F000480100204C0000204C010020500000202A
:1025000050010020540000208401002058000020C9
:10251000880100205C000020B40100200038014048
:10252000980000209C0000206C000020C9010020C1
:10253000480000204400002030000020340000202B
:10254000704700BFFEE700BFFEE700BFFEE700BF29
:10255000FEE770477047704710B540F22551774845
:10256000FFF7A8FE002868D07448FFF723FE7449DF
:1025700008707448008810F4004F5ED171480088DC
:1025800010F4804F34D0084600780A2826D16D48D0
:10259000007800F03F00082811D16A48008840F414
:1025A0000040684908806848007840F004006649A7
:1025B00008700846007800F0F70008703DE06248B7
:1025C000007840F00800604908700846007800F084
:1025D000FB00087000205B4908802EE05A48007814
:1025E00040F008005849087000205649088024E04F
:1025F000534800780D2806D15248008840F48040A6
:102600005049088019E04E4800784E490988C1F3C6
:102610000D014E4A50544B480088401C49490880DF
:1026200008460088C72808DD4748007840F00800C1
:102630004549087000204349088010BD704770B5B7
:1026400001214348FFF761FC002864D0414800881D
:1026500028B140480088401E3E49088006E040F20C
:102660002B103C49088001203B4908703B480088FA
:1026700028B13A480088401E3849088006E040F2F8
:102680002B103649088001203549086035480088FC
:1026900028B134480088401E3249088037E00920BC
:1026A0003049088000F0E8FB044600F016FC0546BF
:1026B00001202D4908602448007840F0020022499A
:1026C0000870284601F023FD28490860204601F0E3
:1026D0001EFD2749086027482749097840F821400E
:1026E00026482549097840F8215023480078401CA5
:1026F0002149087008460078032801DB0020087093
:1027000000F01CFC00F0A8FC00F0D6FC00BF01218A
:102710000F48FFF70BFC70BD10B501211848FFF7FB
:10272000F4FB48B10848007840F001000649087001
:1027300001211348FFF7FAFB10BD000000380140EB
:102740006E0000206C00002041000020C901002024
:10275000000C0040620000206600002064000020A1
:1027600074000020600000207C0000209800002001
:102770009C0000209402002010010020A0020020F4
:10278000002C01402DE9F04704460F46002001F0DF
:10279000BEFC80463946206A01F03DFC8246414637
:1027A00001F0E7FBE060E168206801F03AFC814657
:1027B000A06901F0ACFC8246E16801F0DAFB8046DA
:1027C00001F0B3FCA0612149E069086020491F487D
:1027D000006801F025FD05D31E491C48006801F082
:1027E00015FD01D200206060A06901F090FC8046D8
:1027F000616801F016FC0546D4E9030101F00BFC09
:102800008046A16801F00DFC0646E068206129467B
:10281000484601F0AEFB8046314601F0AAFBE0617C
:102820000D49E069096801F0FBFC02D20A48006822
:10283000E0610A49E069096801F0E8FC02D2074852
:102840000068E061E069BDE8F087000094000020C6
:102850000000A0400000A0C08400002088000020EC
:1028600010B5044642F2107084420ED94021CD4882
:10287000FEF7BFF98021CB48FEF7BDF9A4F51C5047
:10288000103801F04DFCC849086242F210708442D1
:102890000ED28021C348FEF7ACF94021C148FEF7B3
:1028A000AAF942F21071081B01F03AFCBE49086215
:1028B000A4F51C5010380AD14021BA48FEF799F906
:1028C0008021B848FEF795F90020B749086210BD8D
:1028D00010B5044642F21070844210D94FF4806162
:1028E000B048FEF786F94FF40061AE48FEF783F971
:1028F000A4F51C50103801F013FCAC49086242F2F8
:102900001070844210D24FF40061A648FEF771F9AE
:102910004FF48061A348FEF76EF942F21071081B74
:1029200001F0FEFBA1490862A4F51C5010380CD13F
:102930004FF480619B48FEF75CF94FF400619948C1
:10294000FEF757F900209949086210BD2DE9FE4FA6
:10295000044604255A266427DFF854824FF4805930
:10296000384601F0D4FB4146009001F05AFB834603
:1029700005FB06F101FB09F101FB04F001F0C7FBC7
:102980005946019001F083FB029001F0CEFB824694
:102990005046BDE8FE8F2DE9F84F0446854D844E24
:1029A000204601F0B4FB3146009001F03AFB83462B
:1029B000294601F036FB82467F4901F068FB8146DB
:1029C00001F0B3FB8046FFF7C1FF07463846BDE87C
:1029D000F88F10B542F6E060FFF742FF42F6E06084
:1029E000FFF776FF10BD10B542F21070FFF738FF09
:1029F00042F21070FFF76CFF642001070887888798
:102A000010BD10B5044642F210716018FFF728FFA0
:102A100042F210716018FFF75BFF10BD10B504465D
:102A200042F21071081BFFF71BFF42F21071601891
:102A3000FFF74EFF10BD10B5044642F2107160184A
:102A4000FFF70EFF42F21071081BFFF741FF10BDA8
:102A500010B5044642F21071081BFFF701FF42F265
:102A60001071081BFFF734FF10BD2DE9F05F04461D
:102A70000D46524E304601F058FB834601F047FBAD
:102A80008246214601F0CDFA814601F04EFB074611
:102A9000304601F04AFB834601F039FB8246294665
:102AA00001F0BFFA814601F040FB804642F210700F
:102AB0003844FFF70DFF42F210704044FFF7D0FE9C
:102AC000BDE8F09F2DE9F05F04460D4642F210701C
:102AD000FFF797FF42F210716018FFF7C1FE42F254
:102AE00010716018FFF7F4FE284601F01EFB064641
:102AF000FFF72CFF3249086032480068012812D1E4
:102B0000002030490860304801683048006801F012
:102B100030FA2E4908602E4801682E48006801F0FE
:102B200028FA2C4908602B4801682848006801F001
:102B300020FA83464FF0804101F0A9FA81462048EF
:102B4000006801F0E4FA8246494601F064FA06465C
:102B500001F018FB21F00041074600221E4B01F056
:102B600025FB14D91B4801681848006801F001FAD8
:102B700080464FF0804101F08AFA0646104800680E
:102B800001F0C5FA0746314601F040FB08D80020A5
:102B90000E4908600F490860104908601049086034
:102BA000BDE8F09F00100140C8000020EC000020AC
:102BB000C3F54840004088430000B443986E894103
:102BC000AC0000207C00002098000020A000002025
:102BD0009C000020A400002000407F40A8000020AE
:102BE0006A0000204FF0E021096921F004014FF054
:102BF000E0221161C21700EB5272C2F3C7023F4BD1
:102C00001A701946097801EB4102C2EBC1114FF667
:102C1000FF7202EAC1013A4A118070470146384A00
:102C200012884A434FF0E0235A6100229A61012240
:102C30001A6100BF4FF0E022106910F0010F02D0BE
:102C400010F4803FF6D000224FF0E0231A619A6121
:102C500070470146294A12784A434FF0E0235A61EF
:102C600000229A6101221A6100BF4FF0E022106930
:102C700010F0010F02D010F4803FF6D000224FF088
:102C8000E0231A619A61704730B51E48006842F22D
:102C90001072B0FBF2F1B1F1807F00D31DE021F0A2
:102CA0007F40401E4FF0E022506150170F22002855
:102CB00007DA13071D0E144B00F00F04241F1D55D7
:102CC00003E013071C0E114B1C5400BF00204FF0F3
:102CD000E02290610720106100BF30BD10B50C48A4
:102CE0000068401C0A49086008460068592803DD4E
:102CF00000200860FEF727F810BD0000B00000209B
:102D0000B20000200000002018ED00E000E400E028
:102D1000B4000020002007E00021FE4A42F8201005
:102D2000FD4A42F82010401C0328F5D30121FB4A3C
:102D30001170FB4A1170704700B587B00121042063
:102D4000FEF78FF901210820FEF77EF96846FDF7AE
:102D50002EFFC020ADF8000004208DF803000320F2
:102D60008DF802006946EF48FDF798FEEE48FEF741
:102D7000D3F904A8FEF7D0FD0020ADF8100043F60B
:102D8000FF70ADF814000020ADF81600ADF8120089
:102D900004A9E548FEF794FA00231A460321E24805
:102DA000FEF79DFE01A8FEF7CAFD0620ADF80C0057
:102DB00001A9DD48FEF717FD0121DB48FFF7A2F866
:102DC00001221146D848FEF7F2FDFFF7A3FF0121CB
:102DD000D548FEF7D1FD07B000BD00B587B0012191
:102DE0000220FEF73EF901210420FEF72DF9684686
:102DF000FDF7DDFEC020ADF8000004208DF80300D3
:102E000003208DF802006946C848FDF747FEC84810
:102E1000FEF782F904A8FEF77FFD0020ADF8100050
:102E200043F6FF70ADF814000020ADF81600ADF8C1
:102E3000120004A9BE48FEF743FA00231A460321F4
:102E4000BB48FEF74CFE01A8FEF779FD0620ADF861
:102E50000C0001A9B648FEF7C6FC0121B448FFF7F3
:102E600051F801221146B248FEF7A1FD0121B048F8
:102E7000FEF782FD07B000BD70B5A8480078F0B934
:102E8000AC480188A848243003880020A94E30802F
:102E9000A5482430008805B2A348008800F010003F
:102EA000102805D1A4480068181AC0EB813204E04C
:102EB000A1480068181A00EB8132144609E000208E
:102EC000964E307000249B4E308097482430008806
:102ED00005B29948056020B270BD70B59048007881
:102EE000F0B9964801889248243003880020934E18
:102EF00030808F482430008805B28D48008800F06B
:102F00001000102805D18E480068181AC0EB8132D5
:102F100004E08B480068181A00EB8132144609E07F
:102F200000207F4E30700024844E30808048243052
:102F3000008805B28248056020B270BD2DE9F05FBF
:102F400000210C460D460E460F468A460DE071489C
:102F500050F82A00861947EBE0776F4850F82A109E
:102F60000C1945EBE1750AF1010ABAF1030FEED332
:102F7000032200232046294600F0CEFF04460D46DA
:102F8000032200233046394600F0C6FF06460F46AE
:102F9000C8224FF0000C2346A3FB023B05FB02B105
:102FA00004FB0C103C220021A3FB028B00FB02B0AF
:102FB00003FB01094FF480420B464046494600F0AE
:102FC000ABFF0446C82300213046A0FB03CB07FB20
:102FD00003B206FB01203C22ACFB028B00FB02B0DB
:102FE0000CFB01094FF480420B464046494600F075
:102FF00093FF064630B25349086020B25249086038
:1030000050480068514908604F48006850490860BE
:10301000BDE8F09F10B501214348FEF773FF454816
:103020000088A0F57F41FF3904D042480088401C49
:103030004049088010BD10B501213D48FEF762FFF0
:103040003E480088A0F57F41FF3904D03B48008806
:10305000401C3A49088010BD70B53D4800683B49A6
:103060000968401A3B4908603648006801F058F882
:10307000054629463848FFF785FB0446374801686E
:10308000204600F076FF354908603549334800682E
:1030900001F0C6F802D232483049086000212F48BA
:1030A000006801F0B3F802D200202C4908602B48D8
:1030B00000682C49086070BD70B524480068244938
:1030C0000968401A234908601F48006801F028F881
:1030D000054629462448FFF755FB04462348016866
:1030E000204600F046FF214908601D491F4800683E
:1030F00001F096F802D21A481C49086000211B48CA
:10310000006801F083F802D20020184908601748CF
:1031100000682DE094020020A00200201101002090
:1031200012010020000C014000080040000801408E
:1031300000040040360100202C0100203401002052
:10314000300100201C01002020010020C0000020D0
:10315000C400002028010020EC0000201401002001
:103160000000614524010020C80000201801002053
:1031700000F0F4FF4FF0804108870448006800F039
:10318000EDFF4FF08041888770BD000024010020D2
:1031900008B501215C20FDF757FF4FF44C60ADF8F6
:1031A000000010208DF8030003208DF8020069460E
:1031B0001848FDF773FC4FF4C850ADF800004820E4
:1031C0008DF8030003208DF8020069461248FDF7D0
:1031D00065FC4FF47840ADF8000048208DF80300FE
:1031E00003208DF8020069460C48FDF757FC2020AB
:1031F000ADF8000010208DF8030003208DF80200C8
:1032000069460748FDF74AFC20210548FDF7F1FC17
:1032100008BD0000001001400008014000180140F6
:10322000000C014008B500214FF00060FDF7C2F826
:103230004FF4C060FDF786F825208DF800000120CE
:103240008DF8010003208DF8020001208DF80300A5
:103250006846FDF77CF81D208DF8000000208DF8F1
:10326000010001208DF802008DF803006846FDF78B
:103270006EF81E208DF8000000208DF801008DF8FA
:10328000020001208DF803006846FDF760F8322047
:103290008DF8000000208DF8010002208DF802005A
:1032A00001208DF803006846FDF751F819208DF8CC
:1032B000000001208DF8010004208DF8020001209B
:1032C0008DF803006846FDF742F808BD10B5FDF71C
:1032D00051FD4FF48030FDF76DFDFDF7AAFD04466A
:1032E000012C24D11020FDF7AFF80220FDF798F84B
:1032F0000020FDF7E4FD0020FDF7F3FDA002FDF73F
:10330000E7FD4FF4E0112004FDF7BCFD0120FDF7BF
:10331000C5FD00BF3920FDF770FD0028FAD002205E
:10332000FDF7BFFD00BFFDF7C5FD0828FBD110BDAF
:1033300000B589B001210846FDF793FE0121042064
:10334000FDF782FE0620ADF8200018208DF823003E
:1033500003208DF8220008A95648FDF79FFB40F690
:103360000F60ADF818000020ADF81400ADF81A0099
:10337000ADF8160005A94FF08040FDF7A1FF6020D1
:10338000ADF804000020ADF80C000120ADF80600F7
:103390006420ADF80A0001A90007FEF75DF80821D6
:1033A000C806FEF72FFC6020ADF804000020ADF841
:1033B0000C000120ADF806006420ADF80A0001A958
:1033C0000007FDF7FCFF0821C806FEF70EFC0121EF
:1033D0008807FEF7D1FB01218807FEF7CDFA09B077
:1033E00000BD0EB501210820FDF73BFE4FF47A60C9
:1033F000ADF804000820ADF800000020ADF806008C
:10340000ADF8020069462C48FDF75AFF01212A4811
:10341000FEF778FD012211462748FEF7C8FA012180
:103420002548FEF7A9FA0EBD0EB501211020FDF7C3
:1034300018FE2248FDF770FE4FF6FF70ADF804004D
:1034400040F26710ADF800000020ADF80600ADF8BE
:10345000020069461948FDF733FF01211748FEF7BE
:1034600051FD0EBD0EB50121C802FDF7EDFD14485A
:10347000FDF752FE4FF4FA70ADF8040041F61F401C
:10348000ADF800000020ADF80600ADF80200694676
:103490000B48FDF715FF01210948FEF733FD012216
:1034A00011460748FEF783FA01210548FEF764FA42
:1034B0000EBD000000080140000C0040001000405C
:1034C000002C014006E0002101E04A1CD1B248294D
:1034D000FBDB401E0028F6DC704708B501212020E8
:1034E000FDF7B2FD0120ADF8000010208DF80300BB
:1034F00003208DF802006946FE48FDF7CFFA02204E
:10350000ADF8000004208DF803006946F948FDF786
:10351000C5FA0420ADF8000010208DF80300032048
:103520008DF802006946F348FDF7B8FA0820ADF8B7
:10353000000004208DF803006946EE48FDF7AEFA5E
:103540004FF48070ADF8000010208DF803000320C8
:103550008DF802006946E748FDF7A0FA4FF40070C5
:10356000ADF8000004208DF803006946E148FDF73E
:1035700095FA4FF48060ADF8000010208DF803003C
:1035800003208DF802006946DA48FDF787FA4FF408
:103590000060ADF8000004208DF803006946D548AE
:1035A000FDF77CFA4FF48050ADF8000010208DF844
:1035B000030003208DF802006946CE48FDF76EFA3D
:1035C0004FF40050ADF8000004208DF80300694668
:1035D000C848FDF763FA4FF48040ADF800001020B2
:1035E0008DF8030003208DF802006946C148FDF7FD
:1035F00055FA4FF40040ADF8000004208DF80300A8
:103600006946BC48FDF74AFA1020ADF800008DF875
:10361000030003208DF802006946B648FDF73EFA24
:103620008020ADF8000004208DF803006946B14801
:10363000FDF734FA08BD10B5AF48FEF754FC00EBB7
:10364000800000EB001040004FF4FA6190FBF1F0B5
:10365000AA4908800846008810BD70B504460025B8
:10366000062C4BD2DFE804F0034B97E3FCFB04216C
:10367000A048FDF7BEFA0A20FFF724FF04219D4869
:10368000FDF7B9FA00BF08219A48FDF798FA00281B
:10369000F9D001219848FEF76FF928E09648FEF727
:1036A00022FC9749098888420EDD00219248FEF7E6
:1036B00063F9FFF7C0FF054600218F48FEF7F0FBD6
:1036C00001209049087012E008218A48FDF777FA36
:1036D00068B900218848FEF74FF9FFF7ACFF0546AF
:1036E00000218548FEF7DCFB0120864908708548EB
:1036F00000780028D2D00020824908708BE14FF476
:1037000080717C48FDF775FA0A20FFF7DBFE4FF465
:1037100080717848FDF76FFA00BF4FF4007175486B
:10372000FDF74DFA0028F8D001217348FEF724F97F
:1037300029E07148FEF7D7FB7149098888420EDD00
:1037400000216D48FEF718F9FFF775FF05460021C7
:103750006948FEF7A5FB01206B49087013E04FF4A0
:1037600000716448FDF72BFA68B900216248FEF742
:1037700003F9FFF760FF054600215F48FEF790FB65
:10378000012061490870604800780028D1D00020ED
:103790005D4908703FE14FF480615648FDF729FA12
:1037A0000A20FFF78FFE4FF480615248FDF723FA9D
:1037B00000BF4FF400614F48FDF701FA0028F8D030
:1037C00001214D48FEF7D8F829E04B48FEF78BFB66
:1037D0004B49098888420EDD00214748FEF7CCF8A6
:1037E000FFF729FF054600214348FEF759FB01205A
:1037F0004649087013E04FF400613E48FDF7DFF9D9
:1038000068B900213C48FEF7B7F8FFF714FF0546FA
:1038100000213948FEF744FB01203C4908703B4831
:1038200000780028D1D0002038490870F3E04FF428
:1038300080513048FDF7DDF90A20FFF743FE4FF4D1
:1038400080512C48FDF7D7F900BF4FF400512948AB
:10385000FDF7B5F90028F8D00121274801E092E0F2
:1038600034E0FEF789F829E02348FEF73CFB2449C1
:10387000098888420EDD00211F48FEF77DF8FFF71A
:10388000DAFE054600211C48FEF70AFB012020490C
:10389000087013E04FF400511648FDF790F968B92D
:1038A00000211548FEF768F8FFF7C5FE0546002120
:1038B0001148FEF7F5FA0120154908701448007800
:1038C0000028D1D0002012490870A4E04FF48041B4
:1038D0000848FDF78EF90A20FFF7F4FD4FF4804108
:1038E0000448FDF788F900BF4FF400410148FDF797
:1038F00066F90FE00014014000100040460100206E
:103900003C0100203E0100203F010020400100203A
:10391000410100200028E7D001216648FEF72CF87D
:1039200029E06448FEF7DFFA6349098888420EDD22
:1039300000216048FEF720F8FFF77DFE05460021D4
:103940005C48FEF7ADFA01205C49087013E04FF4C3
:1039500000415B48FDF733F968B900215548FEF78F
:103960000BF8FFF768FE054600215248FEF798FA6B
:10397000012052490870514800780028D1D0002019
:103980004E49087047E010214D48FDF732F90A20F2
:10399000FFF798FD10214A48FDF72DF900BF80215F
:1039A0004748FDF70CF90028F9D001214148FDF7FF
:1039B000E3FF28E03F48FEF796FA3F49098888422E
:1039C0000EDD00213B48FDF7D7FFFFF734FE05462B
:1039D00000213848FEF764FA01203A49087012E0E5
:1039E00080213748FDF7EBF868B900213148FDF731
:1039F000C3FFFFF720FE054600212E48FEF750FAD0
:103A00000120304908702F4800780028D2D00020CB
:103A10002C49087000BF00BF284670BD10B50024B7
:103A200001212748FDF7E5F80F20FFF74BFD0121A5
:103A30002348FDF7E0F800BF02212148FDF7BFF859
:103A40000028F9D001211B48FDF796FF28E019480E
:103A5000FEF749FA1849098888420EDD0021154809
:103A6000FDF78AFFFFF7E7FD044600211148FEF746
:103A700017FA01201449087012E002211048FDF7DE
:103A80009EF868B900210B48FDF776FFFFF7D3FDDC
:103A9000044600210748FEF703FA01200A4908708E
:103AA000094800780028D2D0002007490870204635
:103AB00010BD0000001000403C0100204201002029
:103AC00000140140430100204401002000B585B0EE
:103AD00001210520FDF7B8FA01218803FDF7B4FAAA
:103AE0005148FEF727FA4FF40070ADF81000182087
:103AF0008DF8130003208DF8120004A94B48FCF741
:103B0000CDFF4FF48060ADF8100048208DF8130011
:103B100004A94648FCF7C2FF4FF4E13000900020B2
:103B2000ADF80400ADF80600ADF80800ADF80C00E3
:103B30000C20ADF80A0069463B48FEF73EFA012228
:103B400040F225513848FEF7D0FA01213648FEF7F9
:103B5000C0FA40213448FEF7A4FB05B000BD00B513
:103B600085B001214804FDF77CFA01212120FDF7F1
:103B70006BFA01210820FDF760F82020ADF8100055
:103B800018208DF8130003208DF8120004A928488E
:103B9000FCF784FF4020ADF8100048208DF813009A
:103BA00004A92348FCF77AFF4FF4E130009000208D
:103BB000ADF80400ADF80600ADF80800ADF80C0053
:103BC0000C20ADF80A0069461A48FEF7F6F9012202
:103BD00040F225511748FEF788FA01211548FEF7F3
:103BE00078FA40211348FEF75CFB05B000BD70B5C4
:103BF00004460D46E1B20C48FEF7D8FA00BF80211A
:103C00000948FEF741FB0028F9D0204670BD10B5E9
:103C1000044600BF20210448FEF736FB0028F9D0F7
:103C20000148FEF7C7FA10BD003801400008014006
:103C300000140140004400402DE9F0470446894645
:103C40009B48007818B39B4801689B48006800F0C7
:103C5000E8F9074699480168384600F0E2F9054658
:103C6000974801689748006800F0DBF90646294646
:103C700000F00DFA94490860944801689248006881
:103C800000F005FA92490860002089490870494609
:103C9000204600F06EF905464FF07C5100F0C1F966
:103CA0008C4908604946204600F0B5F98A49086009
:103CB00000218A48006800F0B3FA0ED2002188483B
:103CC000006800F0ADFA08D28248006885490860B3
:103CD000814800688449086051E000217F480068FD
:103CE00000F094FA12D200217D48006800F08EFAAC
:103CF0000CD27848006880F000407A490860764825
:103D0000006880F000407849086038E0002173487E
:103D1000006800F07BFA14D200217148006800F0BE
:103D20007FFA0ED26C48006880F000406D49086050
:103D3000684801684FF0404000F073F96A49086034
:103D40001DE000216548006800F06AFA12D20021E7
:103D50006348006800F05AFA0CD25F480068614975
:103D600008605C4801684FF0804000F05AF95E49F5
:103D7000086004E000205B4908605B4908605B481C
:103D8000006800F0FFF9074601F0FEF8054600F074
:103D900021FA574908605548006800F0F3F90746D2
:103DA00001F09CF8054600F015FA524908604848B1
:103DB00001684D48006800F034F94F4908604D48EB
:103DC00001684848006800F02CF906463E48016842
:103DD000304600F026F9054648480168284600F0BC
:103DE000C8F846490860424801683E48006800F04B
:103DF00018F9064634480168304600F012F90546C5
:103E00003F480168284600F0B4F83D4908603A4848
:103E100001683C48006800F0ACF83A490860364850
:103E200001684FF07C5000F0FCF805463548016809
:103E3000284600F09EF82D4908602348016829486B
:103E4000006800F0EEF805462F480168284600F0AB
:103E50001EF92E4908602C4801682748006800F0C8
:103E600016F92B490860164801682648006800F0DA
:103E7000D7F908D2274801682248006800F0CBF83B
:103E80002049086011E00E48006880F000451D4898
:103E90000168284600F0C4F907D21E480168194895
:103EA000006800F066F817490860BDE8F087000078
:103EB000AC0100205C0100207C010020600100209A
:103EC0006C010020640100209C01002058010020AA
:103ED000A0010020A4010020A80100203000002043
:103EE000340000209401002098010020540100209B
:103EF0008C0100209001002080010020480100205A
:103F00004C01002050010020780100208401002095
:103F100088010020740100202DE9F041002425468D
:103F2000002905DA01240027D0EB070067EB010127
:103F3000002B05DA0027D2EB0702012567EB03030C
:103F400000F078F986460E4617469C46AC4204D0EF
:103F50000025D0EB050E65EB010624B10020D2EB65
:103F6000000760EB030C704631463A466346BDE8F5
:103F7000F081F0B480EA0102D40F4200B2EB410FAD
:103F800002D20246084611464A0042D0C30DDDB2B5
:103F9000C1F3C752AD1A202D35DAC1F3160141F431
:103FA000000204B15242C5F1200602FA06F12A418C
:103FB0001044B3EBD05F23D0C4B1012DA0EBC350AC
:103FC00009DCF0BC4FF0004202EAC35200F50000E9
:103FD000DBB200F069B9400000F1807000EBC35023
:103FE000A0F1807040EAD170490009E0490841EA37
:103FF000C071A0EBC35000F50000400800EBC350B7
:10400000F0BC00F048B96142012202EB4101001B03
:10401000F6E7F0BC704781F00041AAE780F000406D
:10402000A7E780EA010210B502F00043400026D065
:104030004A0023D04FEA106101EB1261C0F3560031
:10404000C2F3560240F4000042F40002A0FB02203A
:10405000A1F17F014FEA0040140401D000F10100FA
:1040600050EA124001D44000491EC2B20C0604EBD3
:10407000D010401C4008802A02D003E0002010BD70
:1040800020F00100002900DA0020184310BD30B4F0
:1040900080EA010202F0004530F0004221F00040C9
:1040A00015D0A0B1C0F3C753C2F3C754C2F3160171
:1040B000C0F31600E41A41F4000140F400027D341C
:1040C000914201D3641C00E04900002C02DA30BCAC
:1040D000002070474FF400000023914201D3891A59
:1040E000034340084FEA4101F7D151B1914202D157
:1040F0004FF0004105E002D24FF0010101E06FF006
:10410000010103EBC450284430BC00F0C4B8C10F17
:1041100080EAE0700844CA079623002100F0C4B882
:1041200096230022114600F0BFB800F0004220F0B4
:104130000040C10DC0F3160040F400007F2901DAF1
:1041400000207047962903DCC1F19601C84001E0C8
:1041500096398840002AF4D04042704720F0004051
:10416000C10DC0F3160040F400007F2901DA0020E1
:104170007047962903DCC1F19601C8407047963913
:104180008840704700F0004230F000400AD0C10D76
:1041900001F56071C0F3160042EA0151C208400700
:1041A00011437047002001467047000030B50029D8
:1041B00004DB4FF00044404264EB0101002B04DBC0
:1041C0004FF00044524264EB03038B4208BF82422B
:1041D00030BD000001F0004330B421F0004150EA4E
:1041E000010206D00A0DA2F56072C1F31301002A84
:1041F00002DC30BC00207047440F44EAC104C10017
:10420000E01830BC00EBC25000F045B8002801DBDC
:10421000C0F10040002901DBC1F10041814270473B
:10422000002801DBC0F10040002901DBC1F10041A1
:10423000884270472DE9F05F0546002092469B4674
:1042400088460646814640241BE0284641464746AC
:10425000224600F0FEF853465A46C01A914110D348
:1042600011461846224600F0E5F82D1A67EB0108C2
:104270004F4622460120002100F0DCF817EB000930
:104280004E41201EA4F10104DFDC484631462A4697
:104290004346BDE8F09F0029A8BF7047401C490075
:1042A00008BF20F00100704710B4B0FA80FC00FA9B
:1042B0000CF050EA010404BF10BC704749B1CCF1C6
:1042C000200421FA04F411FA0CF118BF0121214352
:1042D0000843A3EB0C01CB1D0106000A002BBEBF57
:1042E000002010BC704700EBC35010440029A4BF4D
:1042F00010BC7047401C490008BF20F0010010BCF2
:1043000070472DE9F04D81EA030404F0004B21F0E1
:10431000004514464FF0000A23F0004150EA050220
:1043200020D054EA01021DD0C5F30A570246C5F356
:104330001303C1F31300C1F30A5640F4801543F48C
:104340008013A7EB0608101BD64608F2FD3873EB66
:10435000050002D308F1010801E092185B41B8F1B1
:10436000000F03DA00200146BDE8F08D00204FF475
:104370008011064684460EE0171B73EB050705D334
:10438000121B63EB050306434CEA010C49084FEA94
:10439000300092185B4150EA0107EDD152EA030068
:1043A00012D082EA040083EA0501084303D1002207
:1043B0004FF0004308E0101BAB4102D20122002362
:1043C00002E06FF0010253101AEB06004CEB0851AB
:1043D00010EB0A0041EB0B01BDE8F04D00F049B8CD
:1043E00070B521F0004303430CD0C1F30A550024FB
:1043F000D5EB040564EB0403D617AD1AB34102DB19
:104400000020014670BD201841EB025170BD000034
:10441000064C074D06E0E06840F0010394E8070011
:1044200098471034AC42F6D3FBF786FE585100088B
:1044300078510008202A04DB203A00FA02F100201B
:1044400070479140C2F1200320FA03F319439040D2
:104450007047202A04DB203A21FA02F0002170473D
:1044600021FA02F3D040C2F12002914008431946DC
:10447000704710B5002B08DA401C41F1000192187A
:104480005B411A4301D120F0010010BD2DE9F04D30
:1044900092469B4611B1B1FA81F202E0B0FA80F285
:1044A00020329046FFF7C6FF04460F4640EA0A0056
:1044B00041EA0B0153465A46084303D12046394688
:1044C000BDE8F08D114653EA010015D0C8F1400255
:1044D0005046FFF7BEFF05460E4650465946424637
:1044E000FFF7A8FF084301D0012000E000200543AA
:1044F00046EAE0762C4337430A984FEA4453A0EB50
:1045000008004FEAD4240A304FF0000244EA47542E
:104510004FEAD72502D500200146D1E70105101941
:104520006941DDE9084500196941BDE8F04DA0E7A2
:104530002DE9FE4F804681EA0300C00F0C46009033
:1045400021F0004123F00045B8EB0200A94105D25B
:104550004046214690461C460B46024623F000404A
:10456000104304D14046214603B0BDE8F08F270D2B
:10457000C7F30A00C3F30A510290401A0190402881
:1045800066DAC3F3130040F4801B0098924620B112
:104590000023D2EB030A63EB0B0B01985946C0F1E1
:1045A00040025046FFF746FF06460D465046594624
:1045B000019A00F013F910EB08006141002487EA2A
:1045C000115284EAE7731A433BD0009A3AB3019A36
:1045D000012A4FEA075210DC001B61EB02014FF089
:1045E000004202EA0752CDE90042001C41F5801169
:1045F00032462B46FFF74AFFB6E7001B61EB02018C
:10460000001C41F5801300185B412018A2F500172B
:1046100047EB030140EAD570B6196D4111E06D0812
:104620004FEA360645EAC0754FEA0752001B61EBB8
:104630000201001C41F5801149084FEA30000019C1
:10464000514132462B4603B0BDE8F04FFFF711BF92
:104650000098012240000023D0EB020263EBE073DC
:10466000009821464FEAE074B8EB000061EB0401CA
:10467000E9E783F000435BE781F0004158E72DE96B
:10468000FE4F81EA030404F0004421F0004100944D
:104690004FF0000B23F0004350EA010402D052EA2D
:1046A000030404D10020014603B0BDE8F08FC3F33A
:1046B0000A54C1F30A552C44A4F2F3340194A0FB2C
:1046C0000254C1F3130141F48011C3F3130343F403
:1046D000801301FB024400FB034E840A970A44EA5C
:1046E000815447EA8357A4FB076802958D0A05FBAE
:1046F00007854FEA932C04FB0C542705029D4FEAD3
:10470000065847EA1637B5EB08056EEB070C870E1F
:10471000920E47EA811742EA8312A7FB0201B6EB29
:104720000B0164EB00042B0D43EA0C335E1844EBE1
:104730001C50DA465146E7FB0201C5F313044FEA69
:104740000B3343EA14534FEA0432019C43EA060355
:10475000A4F10C040294009CCDE900B4FFF796FE8E
:10476000A2E70EB5C10F80EAE0700844CA07002135
:1047700040F233438DE80E000A460B46FFF786FEF3
:1047800003B000BD0EB540F2334102910021CDE9E6
:1047900000110A460B46FFF779FE03B000BD70B565
:1047A000C1F30A5201F000450024C1F3130140F2A5
:1047B000FF3341F480119A4201DA002070BD40F2CB
:1047C00033439A42A2F2334203DC5242FFF741FEE6
:1047D00000E090402C43F1D0404270BD202A06DB1F
:1047E000CB17203A41FA02F043EAE07306E041FABF
:1047F00002F3D040C2F120029140084319467047AD
:1048000070B501EB020410F8015B15F0070301D14C
:1048100010F8013B2A1106D110F8012B03E010F823
:10482000016B01F8016B5B1EF9D12B0705D4002346
:10483000521E0FD401F8013BFAE710F8013B02F1D8
:104840000202A1EB030303E013F8015B01F8015B33
:10485000521EF9D5A142D6D3002070BD490050EABE
:10486000C12018BF04204A0D18BF40F0010040F2DB
:10487000FF72B2EB515F08BF40F00200012808BF91
:10488000052070472DE9F74F144696B00021C4E982
:1048900002111799089121F00045CA498D4206DCA2
:1048A0001799C4E9000119B00020BDE8F08FC6498E
:1048B000DFF818A3A9423CDD0899C54E0029C54F71
:1048C000C54A1799534619DDFFF7D3FE554506D063
:1048D000C24AC34BFFF7CDFEC4E900010AE04FF026
:1048E000D352BF4BFFF7C5FE32463B46FFF7C1FE32
:1048F000C4E9000119B00120BDE8F08FFFF718FEF0
:10490000554506D0B54AB64BFFF712FEC4E9000183
:104910000AE04FF0D352B24BFFF70AFE32463B4655
:10492000FFF706FEC4E9000119B04FF0FF30BDE803
:10493000F08FAC49A942179978DB21F000488346F3
:10494000A94AAA4B4146FFF79AFE0022A84BFFF75F
:10495000EFFDFFF724FF0990FFF703FF06460F4620
:104960009D4A5346FFF78BFE5A464346FFF784FEA7
:1049700080468A46994A9A4B30463946FFF77FFE71
:104980002A0D01250B9242465346FFF775FE032D73
:10499000C4E9000139D00B98C1F30A51401A05EB64
:1049A00045111139814230DA9248C346784400EB10
:1049B0000510CDF81CA00C90D0E9002330463946F4
:1049C000FFF75DFECDE9020102460B465846079906
:1049D000FFF74FFE80468A4602460B465846079927
:1049E000FFF747FEDDE90223FFF743FE83460C98FD
:1049F00003913946D0E902233046FFF740FE5A467C
:104A0000039BFFF736FE6D1CBDE708980028A2BF88
:104A1000099819B0BDE8F08F616881F000416160CC
:104A2000099819B04042BDE8F08FFFE7C1F31301C8
:104A300041F480110E911799C1F30A51A1F2F53298
:104A4000511102F01F08C8F12002129200220C92AC
:104A50000D92694A7A4402EB810101F1140C0DA90F
:104A60005FF00607DCF80020DCF8045002FA08F3D7
:104A7000129AD1F800A025FA02F21A430E9BA2FB6B
:104A80000356A2FB00329A4415449A4534BF4FF0B6
:104A9000010B4FF0000B51F8043C05EB0B0E734477
:104AA000954234BF012200221644BBF1000F02D010
:104AB000AB4202D903E0AB4201D2012200E0002266
:104AC0003244C1F800A041E90223091FACF1040CF3
:104AD0007F1EC7D10898DDE90A6500F10050800FFC
:104AE00011900898099F8000FFF73BFE80468A4698
:104AF0003846FFF747FE6FF01D02FFF771FC0746CF
:104B000030460591FFF73EFE6FF03D02FFF768FC6F
:104B1000CDE903102846FFF735FE6FF05D02FFF781
:104B20005FFC064602460B460191DDE90310FFF7E4
:104B3000FFFC3A46059BFFF7FBFC42465346FFF756
:104B4000F7FC00200D46834642465346FFF791FD91
:104B50003A46059BFFF78DFDDDE90332FFF789FD3E
:104B60003246019BFFF788FDDFF89480234A4346D5
:104B7000FFF785FD06460F46224A234B5846294635
:104B8000FFF77DFD32463B46FFF7D2FC0F46064657
:104B90004FF0A842434658462946FFF770FD32467B
:104BA0003B46FFF7C5FC179A12F0004F04D0119A4C
:104BB00081F0004152421192C4E90001119819B0EC
:104BC000BDE8F08FFB21E93F7CD90240FB21F93F92
:104BD0007370032E8A19A33B000040543163621A9C
:104BE00061B4D03DFB21394183C8C96D305FE43FDA
:104BF0000000E03FB806000040060000182D4454B5
:104C0000FB21F93D3326A611460B113C2DE9FF4D42
:104C100021F0004807460C46B8F1795F08DAFFF743
:104C2000BEFD002801BF0020324904B0BDE8F08D70
:104C30003A46234610461946FFF721FD054602462F
:104C40002D480E460B460621784400F05DF82A46B2
:104C50003346FFF714FDDDE9022382468B463846D2
:104C60002146FFF70CFD04460F4652465B46284698
:104C70003146FFF704FD22463B46FFF7FAFC0746A4
:104C80008A464FF0FF3228463146FFF7A9FB1B4A00
:104C900090450ADA3A465346FFF7EBFC04B000228F
:104CA000BDE8F04D134BFFF7E7BC154A4245A8BFDE
:104CB000A8F500154FF00004B8BF124D22462B4650
:104CC000FFF7D7FC0646884622462B4600200949B6
:104CD000FFF7CFFC04460D463A4653463046414660
:104CE000FFF7C7FC04B022462B46BDE8F04DFFF7A6
:104CF000C3BC00000000F03FEC0300003333D33F9F
:104D00000000E93F0000D23F2DE9F0414F1E00EBCB
:104D1000C7010446D1E9000115461E4637F00602D8
:104D20000DD02A463346FFF7AAFC7F1E04EBC703CB
:104D3000D3E90023FFF7FCFB37F00602F1D1022F85
:104D400025D0042F13D0062F18BFBDE8F0812A46C6
:104D50003346FFF794FCD4E90A23FFF7E9FB2A4620
:104D60003346FFF78CFCD4E90823FFF7E1FB2A4622
:104D70003346FFF784FCD4E90623FFF7D9FB2A4624
:104D80003346FFF77CFCD4E90423FFF7D1FB2A4626
:104D90003346FFF774FCD4E90223FFF7C9FB2A4628
:104DA0003346FFF76CFCD4E90023BDE8F041FFF780
:104DB000BFBB00002DE9FF4D054621F0004084B047
:104DC0000C46B0F1795F0BDA2846FFF747FD04285F
:104DD00008BF00F065F8284608B02146BDE8F08D10
:104DE0002A460B461046FFF74AFC06460F462A465F
:104DF0002346FFF744FC804626488A4632463B4617
:104E000005217844FFF780FF83461098029160B334
:104E1000214A224B40465146FFF731FCCDE90001C3
:104E20005A4640465146029BFFF729FC8246884677
:104E3000DDE906014FF0FF32FFF7D2FA5246434652
:104E4000FFF717FC32463B46FFF719FCDDE9062366
:104E5000FFF70FFCDDE90023FFF70BFC08B02A4643
:104E60002346BDE8F04DFFF707BC0B465A463046D7
:104E70003946FFF704FC084A084BFFF759FB424646
:104E80005346FFF7FCFB08B02A462346BDE8F04D29
:104E9000FFF74EBB2A030000495555555555C5BF70
:104EA000024A00201107FFF79BBA000001FDFFFF37
:104EB00002E008C8121F08C1002AFAD170477047E3
:104EC000002001E001C1121F002AFBD17047000041
:104ED0000149086070470000B001002000B5284B70
:104EE00021F0004287B09A42DCBF0022134631DD38
:104EF000244B9A420DD168B94FF00100FFF7E8FF4B
:104F0000002207B01346104611465DF804EBFFF788
:104F1000F8B906DB07B04FF001025DF804EBFFF7CC
:104F20005FBA02AAFFF7AEFC10F0030104BF0DF157
:104F3000080CBCE80F000DD0012001290ED0022979
:104F400014D00DF1080C0090BCE80F00FFF732FF01
:104F500007B000BDFFF75AFE07B000BD0DF1080C09
:104F60000090BCE80F00FFF725FF05E00DF1080CED
:104F7000BCE80F00FFF74AFE07B081F0004100BD1A
:104F8000FB21E93F0000F07F00B5294B21F00042F2
:104F900087B09A4203DC00221346009233E0254B8F
:104FA0009A420DD168B94FF00100FFF791FF00223E
:104FB00007B01346104611465DF804EBFFF7A1B9A0
:104FC00006DB07B04FF001025DF804EBFFF708BA0B
:104FD00002AAFFF757FC10F003014FF001000DD0BB
:104FE000012914D002291AD00DF1080CBCE80F00D9
:104FF000FFF70CFE07B081F0004100BD0DF1080C79
:105000000090BCE80F00FFF7D5FE07B000BD0DF122
:10501000080CBCE80F00FFF7F9FD07B000BD0DF16B
:10502000080C0090BCE80F00FFF7C4FEE2E70000A8
:10503000FB21E93F0000F07F4C5555555555A53FE4
:105040007751C1166CC156BF9015CB19A001FA3E1D
:10505000AD529C804F7E92BEC4B1B4BD9EEE213E47
:10506000D43888BEE9FAA8BD00004054FB21F93FBE
:105070003163621A61B4D03D0000601A61B4D03D62
:105080007370032E8A19A33B0000002E8A19A33BDC
:10509000C14920259A837B390000000000000000F0
:1050A0006E83F9A22915444ED15727FCC0DD34F593
:1050B000999562DB4190433CAB6351FE61C5BBDE19
:1050C0003A6E24B7E0D24D42EA2E49061C92D1092D
:1050D0001CEB1DFE3EA729B1F53582E88444BB2EAA
:1050E00026709CE9417E5FB439D69139F4395383F7
:1050F0008B5F849C3B28F9BDFF97F81F0F9805DE56
:105100008B112FEF1F6D0A5ACF7E366DB709CB2753
:10511000663F464F2DEA5F9EC7BA27757BF1E5EBE8
:10512000F739073DEA92528AB15FFB6B085D8D1F2C
:10513000A6F810111111813FD561C119A0012ABF34
:105140007DFEB157E31DC73EEB9C2B8AE6E55ABEB8
:105150007CD5CF5A3AD9E53D7851000800000020AF
:10516000B401000000480008E8510008B401002024
:10517000FC040000C04E00081184A24A0468090122
:10518000020304060708090C69101C020406150531
:10519000322B012B01C9380217311B104104021CAC
:1051A000C1E97BE99020090AD7233CCDCCCC3D0353
:1051B00018403F092224110A2801E5031A14052585
:1051C000FF0A864323804023B4421817C842D80FF1
:1051D000C93FDC0F4940E4CB9640DC0FC9400AD7F9
:0851E000A33B20022C45699A53
:0400000508000131BD
:00000001FF
