:020000040800F2
:1000000058060020450100086D2500086F250008EE
:1000100073250008772500087B25000800000000F4
:100020000000000000000000000000007F25000824
:10003000812500080000000083250008092D000824
:100040005F0100085F0100085F0100085F01000810
:100050005F0100085F0100085F0100085F01000800
:100060005F0100085F0100085F0100085F010008F0
:100070005F0100085F0100085F0100085F010008E0
:100080005F0100085F0100085F0100085F010008D0
:100090005F0100085F0100085F0100085F010008C0
:1000A0005F010008452700085F0100085F010008A4
:1000B0005F01000863300008413000085F0100085C
:1000C0005F0100085F0100085F0100085F01000890
:1000D0005F01000885250008692600085F01000807
:1000E0005F0100085F0100085F0100085F01000870
:1000F0005F0100085F0100085F0100085F01000860
:100100005F0100085F0100086B2600085F0100081E
:100110005F0100085F0100085F0100085F0100083F
:100120005F0100085F0100085F0100085F0100082F
:10013000DFF80CD004F04AFD004800473D230008DA
:10014000580600200648804706480047FEE7FEE7BD
:10015000FEE7FEE7FEE7FEE7FEE7FEE7FEE7FEE777
:1001600045020008310100080CB500200190009004
:100170006B48006840F480306949086000BF6848F7
:10018000006800F4003000900198401C0190009835
:1001900018B90198B0F5A06FF1D16148006810F46A
:1001A000003F02D00120009001E000200090009864
:1001B000012842D15B48006840F0100059490860AE
:1001C0000846006820F0030008600846006840F018
:1001D000020008605248406851494860084640683B
:1001E00048600846406840F48060486008464068BF
:1001F00020F47C1048600846406840F4E8104860ED
:100200000846006840F08070086000BF44480068FD
:1002100010F0007FFAD04248406820F003004049C7
:1002200048600846406840F00200486000BF3C4813
:10023000406800F00C000828F9D10CBD10B5FFF79C
:1002400093FF10BD10B53648006840F001003449F6
:10025000086008464068344908403149486008460B
:100260000068324908402E4908600846006820F4BA
:10027000802008600846406820F4FE0048604FF483
:100280001F008860FFF7DAFF4FF000602849086020
:1002900010BD10B5002100200022214B5B6803F047
:1002A0000C0121B1042906D0082928D107E0214BEF
:1002B000214C236027E01F4B1F4C236023E0184B89
:1002C0005B6803F47010164B5B6803F48032022302
:1002D00003EB904022B9194B4343174C23600DE0C8
:1002E0000F4B5B6813F4003F04D0144B4343124C94
:1002F000236003E00F4B43430F4C236003E00D4B9F
:100300000D4C236000BF00BF054B5B68C3F30313B4
:100310000B4CE15C084B1B68CB40074C236010BDC5
:1003200000100240002002400000FFF8FFFFF6FE30
:1003300008ED00E000127A000000002000093D00F6
:100340000400002031490143314A1160704770B503
:10035000002100230F22C4780CB32D4C246804F430
:10036000E064C4F5E064210AC1F10403CA404478A2
:1003700004FA03F18478144021430901254C0678DE
:10038000A155047804F01F050124AC4005786D11D7
:100390004FF0E02606EB8505C5F8004109E004783A
:1003A00004F01F050124AC401B4D0678761145F87A
:1003B000264070BD194A0A400243154B1B1F1A60A4
:1003C000704739B1124A121D12680243104B1B1DAF
:1003D0001A6006E00E4A121D126882430C4B1B1D68
:1003E0001A607047042808D14FF0E021096941F0F4
:1003F00004014FF0E022116107E04FF0E0210969AC
:1004000021F004014FF0E022116170470000FA056D
:100410000CED00E000E400E080E100E080FFFF1F61
:1004200001460020FE4A106800F0380008431060C2
:100430007047FB49096821F00801F94A116011462B
:100440000968014311607047F549096821F01001FE
:10045000F34A116011460968014311607047F14881
:10046000EF494860F04848607047EE48EC49486002
:10047000ED4848607047EA48006940F08000E8496C
:1004800008617047E648006940F08000E44908616F
:1004900070470420E249C96811F0010F01D0012022
:1004A0000EE0DF49C96811F0040F01D0022007E017
:1004B000DB49C96811F0100F01D0032000E00420CF
:1004C000704700B502460423FFF7E3FF034603E04D
:1004D000FFF7DFFF0346521E012B01D1002AF7D19F
:1004E00002B90523184600BD30B5044604254FF473
:1004F0003020FFF7E6FF0546042D17D1C8480069F4
:1005000040F00200C649086108464461006940F0B5
:10051000400008614FF43020FFF7D3FF0546C04884
:10052000006941F6FD710840BD490861284630BDAB
:1005300010B504244FF43020FFF7C3FF0446042C09
:1005400016D1B748006940F00400B5490861084673
:10055000006940F0400008614FF43020FFF7B1FF20
:100560000446AF48006941F6FB710840AC49086198
:10057000204610BD00B502460423FFF78AFF03465C
:1005800003E0FFF786FF0346521E012B01D1002A2C
:10059000F7D102B90523184600BD10B504244FF465
:1005A0003020FFF7E7FF0446042C16D19C48006971
:1005B00040F004009A4908610846006940F0400094
:1005C00008614FF43020FFF7D5FF044694480069D6
:1005D00041F6FB71084092490861204610BD002099
:1005E0008F49C96911F0020F01D0012000E00020FD
:1005F000704730B5A5250424FFF7F1FF00B10025B1
:100600004FF43020FFF75DFF0446042C3AD18548B3
:1006100083498860844888600846006940F020006B
:1006200008610846006940F0400008614FF430203E
:10063000FFF747FF0446042C1BD17948006941F6B7
:10064000DF710840764908610846006940F01000F3
:10065000086176480580E002FFF733FF0446052C69
:1006600010D06F48006941F6EF7108406C4908618D
:1006700008E0052C06D06A48006941F6EF71084091
:1006800067490861204630BD78B506460C4604250A
:1006900000200090E802FFF714FF0546042D24D146
:1006A0005F48006940F001005D4908613480E8025C
:1006B000FFF707FF0546042D10D1B01C0090200C59
:1006C00000990880E802FFF7FCFE054654480069DF
:1006D00041F6FE7108405249086106E05048006941
:1006E00041F6FE7108404E490861284678BD70B554
:1006F00004460D460426F002FFF7E3FE0646042EEC
:1007000011D14748006940F0010045490861258042
:10071000F002FFF7D6FE06464148006941F6FE7139
:1007200008403F490861304670BD70B505460E4629
:100730000424E002FFF7C5FE0446042C17D1394813
:1007400037498860384888600846006940F01000E2
:1007500008612E80E002FFF7B4FE0446052C06D0A7
:100760002F48006941F6EF7108402D490861204685
:1007700070BD2DE9F04304464FF6FF763746B0468C
:10078000B1460425E443E6B2C4F30727C4F307489F
:100790004FEA1469E802FFF794FE0546042D49D19B
:1007A00020481F498860204888600846006940F05A
:1007B00010000861FF2E06D01C4808300680E802B1
:1007C000FFF77FFE0546042D08D1FF2F06D01748FE
:1007D0000A300780E802FFF774FE0546042D0AD1AF
:1007E000B8F1FF0F07D011480C30A0F80080E802E4
:1007F000FFF767FE0546042D0AD1B9F1FF0F07D0B8
:100800000A480E30A0F80090E802FFF75AFE0546AD
:10081000052D0FD00248006941F6EF71084007E04E
:100820000020024023016745AB89EFCD00F8FF1F90
:10083000664908612846BDE8F08330B505460424C2
:100840004FF43020FFF73DFE0446042C41D16048B0
:100850005E4988605F4888600846006940F0200073
:1008600008610846006940F0400008614FF43020FC
:10087000FFF727FE0446042C22D15448006941F6B4
:10088000DF710840514908610846006940F01000D6
:1008900008611DB100205049088002E0A5204E49A2
:1008A00008804FF43020FFF70CFE0446052C10D0D2
:1008B0004648006941F6EF7108404449086108E084
:1008C000052C06D04148006941F6DF7108403F49D8
:1008D0000861204630BDF0B505460E461746042493
:1008E0003B483A4988603B488860E002FFF7E9FDF1
:1008F0000446042C19D13548006940F010003349F2
:10090000086147F0F800304328433349891C0880C8
:10091000E002FFF7D6FD0446052C06D02B480069FF
:1009200041F6EF710840294908612046F0BD27488B
:10093000C069800870472548006A70470020234935
:10094000096811F0200F01D0012000E0002070475D
:1009500029B11E4A126902431C4B1A6104E01B4A6A
:1009600012698243194B1A61704701460020012920
:1009700008D1164AD26912F0010F01D0012008E017
:10098000002006E0114AD2680A4201D0012000E0AE
:10099000002070470D49C860704704200B49C968A2
:1009A00011F0010F01D001200EE00849C96811F0D3
:1009B000040F01D0022007E00449C96811F0100FAC
:1009C00001D0032000E00420704700000020024016
:1009D00023016745AB89EFCD00F8FF1F10B5044632
:1009E000CA48844208D10121042000F047FB0021BD
:1009F000042000F043FB46E0C548844208D10121B1
:100A0000082000F03BFB0021082000F037FB3AE013
:100A1000C048844208D10121102000F02FFB0021A2
:100A2000102000F02BFB2EE0BB48844208D10121AE
:100A3000202000F023FB0021202000F01FFB22E0FB
:100A4000B648844208D10121402000F017FB002164
:100A5000402000F013FB16E0B148844208D1012188
:100A6000802000F00BFB0021802000F007FB0AE053
:100A7000AC48844207D10121801500F0FFFA002123
:100A8000A01500F0FBFA10BD10B50121084600F0DA
:100A9000F5FA0021012000F0F1FA10BD2DE9F04136
:100AA000024600250026002000230024002791F89C
:100AB00003C00CF00F0591F803C01CF0100F03D019
:100AC00091F802C04CEA050591F800C0BCF1000F96
:100AD00031D0146800202BE04FF0010C0CFA00F329
:100AE000B1F800C00CEA03069E4220D183004FF00B
:100AF0000F0C0CFA03F7BC4305FA03FC4CEA0404A0
:100B000091F803C0BCF1280F06D14FF0010C0CFA8C
:100B100000FCC2F814C00AE091F803C0BCF1480F11
:100B200005D14FF0010C0CFA00FCC2F810C0401CBB
:100B30000828D1D31460B1F800C0BCF1FF0F34DD38
:100B4000546800202EE000F1080C4FF0010808FA6C
:100B50000CF3B1F800C00CEA03069E4221D18300D9
:100B60004FF00F0C0CFA03F7BC4305FA03FC4CEAF8
:100B7000040491F803C0BCF1280F05D100F1080C62
:100B800008FA0CF8C2F8148091F803C0BCF1480FC1
:100B900007D100F1080C4FF0010808FA0CF8C2F870
:100BA0001080401C0828CED35460BDE8F0814FF679
:100BB000FF710180022181700421C17070470246DB
:100BC000002093680B4201D0012000E00020704714
:100BD0000146886880B2704702460020D3680B4205
:100BE00001D0012000E0002070470146C86880B2B3
:100BF000704701617047416170470AB1016100E0CF
:100C000041617047C16070474FF480320A4382618E
:100C10008161826182698269704702460020424B8D
:100C200018684FF68073184040EA021008433E4BA4
:100C3000186070473D49C8617047F0B50A46002307
:100C400000240021002500F00046B6F1004F02D13B
:100C5000354EF16901E0344E7168C0F3034583B24B
:100C600000F44016B6F5401F08D121F070612E4EF9
:100C7000766826F070662C4F7E6012E000F48016D5
:100C8000B6F5801F06D1032606FA05F4A14341F00C
:100C9000706106E0460D360103FA06F6B14341F0F5
:100CA000706122B1460D360103FA06F6314300F0B9
:100CB0000046B6F1004F02D11B4EF16101E01A4E21
:100CC0007160F0BD30B500228B071C0F0F2303FAB3
:100CD00004F2154B08338C1053F824309343124C14
:100CE00008348D1044F8253023468C1053F82430F6
:100CF0008C07240F00FA04F423430B4C08348D10A6
:100D000044F8253030BD0A490860704700080140AA
:100D1000000C014000100140001401400018014087
:100D2000001C014000200140000001400000204262
:100D3000DC0020420E49086070470D49486070474A
:100D40000B49886070474AF6AA2009490860704735
:100D50004CF6CC4006490860704701460020044A22
:100D6000D2680A4201D0012000E000207047000054
:100D700000300040DD48006840F00100DB490860B9
:100D800008464068DA490840D84948600846006883
:100D9000D8490840D54908600846006820F48020FA
:100DA00008600846406820F4FE0048604FF41F00C9
:100DB00088607047CD49096821F48031CB4A1160C1
:100DC0001146096821F480211160B0F5803F03D0FD
:100DD000B0F5802F0ED106E0C449096841F4803196
:100DE000C24A116007E0C149096841F4A021BF4A25
:100DF000116000E000BF00BF704710B5014600223F
:100E0000002300204A11012A02D1B84C236806E0D1
:100E1000022A02D1B54C236A01E0B44C636A01F0A6
:100E20001F02012494401C4201D0012000E0002058
:100E300010BD38B5002000900024002500BF3120EF
:100E4000FFF7DBFF05460098401C00900098B0F5C6
:100E5000A06F01D0002DF2D03120FFF7CEFF08B1F6
:100E6000012400E00024204638BD014600209F4AAE
:100E7000106820F0F80040EAC100106070479E49F9
:100E80000860704702460020984B586820F47C1098
:100E900042EA01031843954B58607047964908662B
:100EA000704701460020914A506820F00300084333
:100EB000506070478D48406800F00C007047014654
:100EC00000208A4A506820F0F000084350607047C4
:100ED00001460020854A506820F4E06008435060D5
:100EE000704701460020814A506820F4605040EA73
:100EF000C1005060704729B17C4A527A02437B4B53
:100F00005A7204E0794A527A8243784B5A72704797
:100F10007A490860704701460020744A506820F4FE
:100F200040400843506070470021754A11706F4A75
:100F300082F82010012802D0042808D103E0012102
:100F40006F4A117004E005216D4A117000E000BF86
:100F500000BF70476B49086070476449096A0143E4
:100F6000624A11627047674944390860704730B57A
:100F700000210022002400235C4D6D6805F00C0167
:100F800021B1042905D0082923D105E05E4D056073
:100F900022E05D4D05601FE0544D6D6805F4701250
:100FA000524D6D6805F48034022505EB92421CB960
:100FB000564D554305600BE04C4D6D6815F4003FF0
:100FC00003D0524D5543056002E04F4D5543056037
:100FD00002E04D4D056000BF00BF444D6D6805F057
:100FE000F00109094A4D6B5C0568DD4045603F4DE5
:100FF0006D6805F4E061090A454D6B5C4568DD40AC
:1010000085603A4D6D6805F46051C90A404D6B5CCE
:101010004568DD40C560354D6D6805F44041890B7C
:101020003C4D6B5CC568B5FBF3F5056130BD29B17E
:101030002E4A526902432D4B5A6104E02B4A5269F1
:1010400082432A4B5A61704729B1284A9269024368
:10105000264B9A6104E0254A92698243234B9A61A8
:10106000704729B1214AD2690243204BDA6104E07A
:101070001E4AD26982431D4BDA61704729B11B4A6F
:10108000D2680243194BDA6004E0184AD2688243FE
:10109000164BDA60704729B1144A12690243134BA8
:1010A0001A6104E0114A12698243104B1A617047B9
:1010B00014494039086070470F49C86470470B49AC
:1010C000C87170470948406A40F08070074948621B
:1010D000704701460020054A92680A4201D001206B
:1010E00000E00020704701498872704700100240FC
:1010F0000000FFF8FFFFF6FE00004242D800424227
:10110000201002408004424200127A0000093D0093
:10111000140000202400002010B50446FE4884423C
:1011200008D10121C014FFF7A9FF0021E014FFF747
:10113000A5FFC4E0B4F1804F08D101210846FFF7B4
:10114000AAFF00210120FFF7A6FFB8E0F348844280
:1011500008D101210220FFF79EFF00210220FFF7A6
:101160009AFFACE0EE48844208D101210420FFF749
:1011700092FF00210420FFF78EFFA0E0E94884429F
:1011800008D101210820FFF786FF00210820FFF782
:1011900082FF94E0E448844208D101211020FFF747
:1011A0007AFF00211020FFF776FF88E0DF488442B5
:1011B00008D101212020FFF76EFF00212020FFF73A
:1011C0006AFF7CE0DA48844208D101214014FFF72D
:1011D00055FF00216014FFF751FF70E0D5488442AD
:1011E00009D10121C804FFF749FF00214FF4002075
:1011F000FFF744FF63E0D048844209D1012108058C
:10120000FFF73CFF00214FF48010FFF737FF56E057
:10121000CA48844209D101214805FFF72FFF002168
:101220004FF40010FFF72AFF49E0C548844208D177
:1012300001214020FFF72FFF00214020FFF72BFF67
:101240003DE0C048844208D101218020FFF723FF00
:1012500000218020FFF71FFF31E0BB48844208D106
:1012600001218015FFF717FF0021A015FFF713FFDD
:1012700025E0B648844209D101210804FFF7FEFEAB
:1012800000214FF48030FFF7F9FE18E0B0488442A7
:1012900009D101214804FFF7F1FE00214FF400308D
:1012A000FFF7ECFE0BE0AB48844208D10121880433
:1012B000FFF7E4FE00214FF48020FFF7DFFE10BDB2
:1012C00000220288944B98420ED0994B98420BD042
:1012D000B0F1804F08D0914B984205D0904B984286
:1012E00002D0904B984204D14FF68F731A404B882E
:1012F0001A438D4B984207D08C4B984204D04FF63E
:10130000FF431A40CB881A4302808B8883850B8861
:101310000385814B98420BD0854B984208D08B4B6C
:10132000984205D08A4B984202D08A4B984201D10C
:101330000B7A038601238382704770B50024002254
:101340000023058C4FF6FE7635400584028C838899
:10135000048B4FF68F752C40B51E2C400D882C4306
:10136000751E2A400D892A434D882A436A4DA8429A
:101370000BD06F4DA84208D0744DA84205D0744DD3
:10138000A84202D0734DA84213D14FF6F7752A40F8
:101390004D892A434FF6FB752A408D882A434FF624
:1013A000FF652B404FF6FF552B408D892B43CD8990
:1013B0002B4383800483CD888586028470BD70B5FD
:1013C000002400220023058C4FF6EF76354005847B
:1013D000028C8388048B48F6FF752C404FF6FF453E
:1013E0002C400D884FF6FF7606EA05252C434FF674
:1013F000DF752A400D8906EA05152A434D8806EA5D
:1014000005152A43444DA84202D0494DA8421DD19A
:101410004FF67F752A404D894FF6FF7606EA05158F
:101420002A434FF6BF752A408D8806EA05152A43E0
:101430004FF6FF352B404FF2FF752B408D8906EAA2
:1014400085052B43CD8906EA85052B4383800483DC
:10145000CD880587028470BD70B50024002200236A
:10146000058C4FF6FF6635400584028C8388848B9B
:101470004FF68F752C404FF6FC752C400D882C4391
:101480004FF6FF552A400D894FF6FF7606EA0525EF
:101490002A434D8806EA05252A431F4DA84202D05B
:1014A000234DA8421DD14FF2FF752A404D894FF6BA
:1014B000FF7606EA05252A434FF6FF352A408D8838
:1014C00006EA05252A434EF6FF752B404DF6FF75BB
:1014D0002B408D8906EA05152B43CD8906EA0515B3
:1014E0002B4383808483CD888587028470BD70B54B
:1014F000002200230024058C4EF6FF76354005843B
:10150000038C8488828B48F6FF752A404FF6FF458E
:101510002A400D8820E00000002C0140000400401B
:1015200000080040000C0040001000400014004083
:1015300000340140004C0140005001400054014083
:1015400000180040001C0040002000400040014006
:1015500000440140004801404FF6FF7606EA0525A9
:101560002A434DF6FF752B400D8906EA05352B43BE
:101570004D8806EA05352B43FA4DA84202D0FA4DB4
:10158000A84208D14BF6FF752C408D894FF6FF76A7
:1015900006EA85152C4384808283CD88A0F84050CC
:1015A000038470BD828B4FF2FF331A408283828B9B
:1015B0004FF6FF7303EA01231A4382837047F0B5A5
:1015C0000C461546002200210026078C4EF6FF7CB3
:1015D00007EA0C070784828B018C4FF6FF7707EA36
:1015E000043640F6FF473A404FF6FF7707EA0527F3
:1015F0003A434FF6FF7707EA03373A43D94FB842E9
:101600000ED0D94FB8420BD0B0F1804F08D0D74F91
:10161000B84205D0D64FB84202D0D64FB84206D114
:101620004DF6FF77394046F48057394305E047F6D9
:10163000FF57394044F48057394382830184F0BD19
:10164000828B4FF6F3731A408283828B0A43828324
:101650007047F0B50C461546002200210026078C85
:101660004FF6FF6C07EA0C070784828B018C4FF65C
:10167000FF7707EA04264FF60C773A404FF6FF77DC
:1016800007EA03172F433A43B64FB8420ED0B64F7E
:10169000B8420BD0B0F1804F08D0B44FB84205D05B
:1016A000B34FB84202D0B34FB84206D14FF6FF57FE
:1016B000394046F48077394305E04FF2FF5739400F
:1016C00044F48077394382830184F0BD028B4FF26A
:1016D000FF331A400283028B4FF6FF7303EA0123A4
:1016E0001A4302837047F0B50C46154600220021CC
:1016F0000026078C4FF6EF7C07EA0C070784028B65
:10170000018C4FF6FF7707EA041640F6FF473A4090
:101710004FF6FF7707EA03373A434FF6FF7707EABA
:1017200005273A438F4FB8420ED08F4FB8420BD0A7
:10173000B0F1804F08D08D4FB84205D08C4FB842E1
:1017400002D08C4FB84206D14FF6DF77394046F0D1
:101750001007394305E04FF65F77394044F0100732
:10176000394302830184F0BD028B4FF6F3731A40B4
:101770000283028B0A4302837047F0B50C4615467C
:1017800000220021068C4FF6FE773E400684028B35
:10179000018C4FF60C7632407E1C06EA03162E436F
:1017A0003243704EB0420ED06F4EB0420BD0B0F10B
:1017B000804F08D06D4EB04205D06D4EB04202D081
:1017C0006C4EB04206D14FF6FD76314044F0010632
:1017D000314305E04FF6F576314044F001063143E0
:1017E00002830184F0BD70B505460C465D48854214
:1017F0000ED05D4885420BD0B5F1804F08D05B48D4
:10180000854205D05A48854202D05A48854200D1C7
:1018100000E000BF208850B92389A288618828464B
:10182000FFF7ABFFE1882846FFF79EFF25E0208801
:1018300004280AD12389A28861882846FFF753FF2C
:10184000E1882846FFF742FF17E0208808280AD1E0
:101850002389A28861882846FFF7FBFEE188284695
:10186000FFF7EEFE09E02389A28861882846FFF78A
:10187000A6FEE1882846FFF795FE70BD2DE9F041F0
:1018800005460C4600260127608808B9022600E0BC
:101890000026A088012801D1022700E00127208826
:1018A000A0B92389A28861882846FFF766FFE188EE
:1018B0002846FFF759FF23893A4631462846FFF765
:1018C00012FFE1882846FFF701FF13E02389A28871
:1018D00061882846FFF707FFE1882846FFF7F6FEF4
:1018E00023893A4631462846FFF747FFE1882846D4
:1018F000FFF73AFFBDE8F0810A884B881A438B88CE
:101900001A43CB881A430B891A434B891A438B8994
:101910001A43A0F8442070474FF6FF7181800021E0
:101920000180C180418001727047002101804180A7
:101930008180C180018141818181C1817047002105
:1019400001804180012181800021C1800181704797
:101950000021018041808180C1800181418181819C
:1019600070470000002C014000340140000400409A
:1019700000080040000C004021B1028842F0010242
:10198000028004E002884FF6FE731A40028070471E
:1019900031B1B0F8442042F40042A0F8442005E000
:1019A000B0F84420C2F30E02A0F8442070471AB1E8
:1019B00083890B43838102E083898B438381704752
:1019C0008182704741EA0203A0F8483070471AB19B
:1019D00083890B43838102E083898B438381704732
:1019E00001894FF6F8721140018170470A460021C3
:1019F00001894FF68F73194011430181704730B54B
:101A000004460D4629462046FFF7F0FF208940F0A6
:101A10000700208130BD2DE9F04104460D461646F1
:101A20001F46602D06D13B46012231462046FFF776
:101A30005AFE05E03B46012231462046FFF79DFE57
:101A400029462046FFF7D2FF208940F00700208179
:101A5000BDE8F08130B50C4600210189C9B24FF6CE
:101A6000FF7505EA0325154325432943018130BD50
:101A70002DE9F04105460E46174698460024434698
:101A80003A4631462846FFF7E5FF2C894FF6F870B5
:101A9000044044F007044FF68F70044044F0700493
:101AA0002C81BDE8F081F0B504460D4616461F4670
:101AB0003B46324629462046FFF7CCFF208940F4BA
:101AC00080402081F0BD0185828270470A46002156
:101AD00001884FF68F731940114301807047F0B5AC
:101AE0000C4615461E460021002200230189028B68
:101AF000038C4FF6F877394021434FF6FC473A40C4
:101B000040F201173A434FF6DD773B404FF6FF773F
:101B100007EA06172F433B43018102830384F0BD8C
:101B20000A460021018B4FF68F7319401143018340
:101B300070470A460021018B48F6FF7319404FF6A3
:101B4000FF7303EA02231943018370470A46002109
:101B5000818B4FF68F7319401143818370470A467A
:101B60000021818B48F6FF7319404FF6FF7303EA9B
:101B7000022319438183704721B1028842F0800219
:101B8000028004E002884FF67F731A40028070479B
:101B900021B1828842F00402828004E082884FF6FC
:101BA000FB731A408280704721B1828842F008029C
:101BB000828004E082884FF6F7731A408280704773
:101BC00021B1828842F00102828004E082884FF6CF
:101BD000FE731A40828070470A460021018B4FF63F
:101BE000F77319401143018370470A460021018BA6
:101BF0004FF2FF7319404FF6FF7303EA02231943B4
:101C0000018370470A460021818B4FF6F773194014
:101C10001143818370470A460021818B4FF2FF7385
:101C200019404FF6FF7303EA02231943818370477B
:101C30000A460021018B4FF6FB73194011430183C3
:101C400070470A460021018B4FF6FF3319404FF6CB
:101C5000FF7303EA02231943018370470A460021F8
:101C6000818B4FF6FB7319401143818370470A46FD
:101C70000021818B4FF6FF3319404FF6FF7303EAC3
:101C800002231943818370470A460021018B4FF6D6
:101C90007F7319401143018370470A460021018B6D
:101CA000C1F30E014FF6FF7303EA022319430183C8
:101CB00070470A460021818B4FF67F73194011430C
:101CC000818370470A460021818BC1F30E014FF6D4
:101CD000FF7303EA02231943818370470A460021F8
:101CE000018C4FF6FD7319401143018470470A4679
:101CF0000021018C4FF6F77319401143018470479E
:101D00000A460021018C4FF6DF7319404FF6FF732E
:101D100003EA02131943018470470A460021018C2B
:101D20004FF67F7319404FF6FF7303EA021319430E
:101D3000018470470A460021018C4FF6FF53194079
:101D40004FF6FF7303EA02231943018470470A46E2
:101D50000021018C4FF2FF7319404FF6FF7303EA25
:101D600002231943018470470A460021018C4DF675
:101D7000FF7319404FF6FF7303EA023319430184DE
:101D8000704730B5002301248C40A3B2048C9C43DF
:101D90000484048C02FA01F5ADB22C43048430BDF6
:101DA00030B5002304248C40A3B2048C9C430484EB
:101DB000048C02FA01F5ADB22C43048430BD70B539
:101DC0000346002000241846183001258D40ACB28F
:101DD0001D8CA5431D8409B1082909D100EB6100C0
:101DE000056825F0700505600568154305600EE07F
:101DF0000D1FC5F34E052844056825F4E045056030
:101E000005684FF6FF7606EA02263543056070BD89
:101E100021B1028842F00202028004E002884FF6FB
:101E2000FD731A400280704721B1028842F004021B
:101E3000028004E002884FF6FB731A40028070476C
:101E400021B1828842F08002828004E082884FF6CD
:101E50007F731A408280704702884FF6F7731A40EA
:101E6000028002880A430280704782884FF68F738F
:101E70001A40828082880A438280704702894FF626
:101E8000F8731A40028102890A430281704702896D
:101E90004FF67F731A40028102890A43028170471C
:101EA00081847047818570478186704701877047BC
:101EB00081877047A0F84010704702884FF6FF43B3
:101EC0001A40028002880A43028070470146888EC9
:101ED00070470146088F70470146888F704701465A
:101EE000B1F8400070470146888C70470146088D64
:101EF000704702460020138A0B4201D0012000E007
:101F000000207047CA430282704730B50246002065
:101F100000230024158A05EA0103958905EA0104D6
:101F200013B10CB1012000E0002030BDCA43028291
:101F30007047000010B50446FB48844209D10121D6
:101F40008803FFF79BF800214FF48040FFF796F8D5
:101F500032E0F648844209D101214804FFF79BF89A
:101F600000214FF40030FFF796F825E0F048844256
:101F700009D101218804FFF78EF800214FF4802059
:101F8000FFF789F818E0EB48844209D10121C80421
:101F9000FFF781F800214FF40020FFF77CF80BE0F9
:101FA000E548844208D101210805FFF774F80021B3
:101FB0004FF48010FFF76FF810BD2DE9F04786B0A1
:101FC00005460E460024A24600BFA1460027B08960
:101FD00000B100BF2F462C8A4CF6FF700440F088F9
:101FE00004432C82AC894EF6F3100440B08831894A
:101FF0000843718908430443AC81AC8A4FF6FF4023
:102000000440B0890443AC8201A8FEF7B0FFC64883
:10201000874202D1DDF810A001E0DDF80CA0A8890C
:1020200010F4004F08D00AEBCA0000EB0A10316828
:102030004900B0FBF1F807E00AEBCA0000EB0A1018
:1020400031688900B0FBF1F86420B8FBF0F00401BE
:102050002009642101FB1089A88910F4004F08D0E1
:10206000322000EBC900B0FBF1F000F007000443A0
:1020700008E0322000EB09106421B0FBF1F000F021
:102080000F0004432C8106B0BDE8F0874FF41651D1
:10209000016000218180C18001810C2141810021EA
:1020A0008181704710B502460020108A4FF2FF036D
:1020B00018400B884C8823438C882343CC882343C7
:1020C0001843108210BD0021018041808180C180B1
:1020D000704721B1828942F40052828104E08289F2
:1020E0004DF6FF731A4082817047F0B50346002415
:1020F000002600250020A1F510676A3F00D100BF2F
:102100001846C1F3421401F01F06012707FA06F52D
:10211000012C01D10C3004E0022C01D1103000E080
:1021200014301AB107682F43076002E00768AF4315
:102130000760F0BD1AB1838A0B43838202E0838A71
:102140008B4383827047028A4FF6F0731A400282F3
:10215000028A0A430282704782894FF2FF731A4053
:10216000828182890A438281704721B1828942F04B
:102170000202828104E082894FF6FD731A40828157
:102180007047028A4FF6DF731A400282028A0A43BE
:102190000282704721B1028A42F48042028204E046
:1021A000028A4BF6FF731A4002827047C1F308029D
:1021B0008280704701468888C0F308007047818993
:1021C00041F0010181817047028BD2B20283028B00
:1021D00042EA012202837047028B02F47F420283AB
:1021E000028B0A430283704721B1828A42F02002A7
:1021F000828204E0828A4FF6DF731A40828270473F
:1022000021B1828A42F01002828204E0828A4FF673
:10221000EF731A408282704721B1828A42F008022D
:10222000828204E0828A4FF6F7731A4082827047F6
:1022300021B1828942F40042828103E08289C2F3A3
:102240000E028281704721B1828A42F4006282824A
:1022500004E0828A4FF2FF731A4082827047828ABA
:102260004FF6FB731A408282828A0A438282704749
:1022700021B1828A42F00202828204E0828A4FF611
:10228000FD731A408282704702460020B1F5007F3C
:1022900000D100BF13880B4201D0012000E00020D4
:1022A000704701F40072B2F5007F00D100BFCA434D
:1022B0000280704770B502460024002300250020EC
:1022C000A1F510666A3E00D100BFC1F3421501F0CE
:1022D0001F03012606FA03F3012D02D1968933402C
:1022E00006E0022D02D1168A334001E0968A33407F
:1022F0000C12012606FA04F41688344013B10CB10E
:10230000012000E0002070BD10B500220023A1F5DF
:1023100010646A3C00D100BF0A1201249440A3B2A9
:10232000DC43048010BD0000003801400044004040
:1023300000480040004C00400050004000250026AE
:1023400000240027A04601F009F800F00BFD00F082
:102350005AFD01F05CF801F09BF801F07BF800F009
:10236000CBFF00F075FF00F029FF01F0CAF801F083
:10237000C1FB01F008FC00F09DFCD3E06A48007846
:1023800010F0010F3ED0694800686949086069484B
:102390000068694908606948006869490860002464
:1023A0000FE06348005D674908556348015D654A71
:1023B000201D11546248015D04F108001154601C95
:1023C000C4B2042CEDDB0A205E490873002611E03C
:1023D00040215D48FFF765FF5A48815D5A48FFF785
:1023E000E5FE00BF40215848FFF74EFF0028F9D016
:1023F000701CC6B20D2EEBDB4B48007800F0FE00DF
:10240000494908704848007810F0020F0BD04F4837
:1024100001684F48006801F023FC4348007800F051
:10242000FD00414908704048007810F0040F25D0A5
:1024300040214548FFF735FF00270CE001214248C5
:10244000FFF7B4FE00BF40213F48FFF71DFF002803
:10245000F9D0781CC7B2032FF0DB0A213A48FFF706
:10246000A5FE00BF40213848FFF70EFF0028F9D035
:102470002D48007800F0FB002B4908702A480078AE
:1024800010F0080F29D040212F48FFF70AFF4FF026
:1024900000080EE000212C48FFF788FE00BF402115
:1024A0002948FFF7F1FE0028F9D008F1010000F0FB
:1024B000FF08B8F1030FEDDB0A212348FFF776FE92
:1024C00000BF40212048FFF7DFFE0028F9D0164862
:1024D000007800F0F700144908701E48008810F4D6
:1024E000004F19D000250AE01B48405D1B494855A4
:1024F0001949281D085C1A494855681CC5B2042DA5
:10250000F2DB16480068174908601548006816494C
:10251000086000200F490880114A11680F4A1068AE
:1025200000F0B9FA2AE70000390000203801002045
:10253000440000203C010020480000204001002011
:102540004C00002064010020003801408C00002075
:10255000880000205C000020710100204000002065
:102560003C0000203000002034000020704700BFF5
:10257000FEE700BFFEE700BFFEE700BFFEE77047D3
:102580007047704710B540F225517748FFF792FE2B
:10259000002868D07448FFF70DFE7449087074482D
:1025A000008810F4004F5ED17148008810F4804F0D
:1025B00034D0084600780A2826D16D48007800F00B
:1025C0003F00082811D16A48008840F4004068495B
:1025D00008806848007840F00400664908700846A2
:1025E000007800F0F70008703DE06248007840F0A5
:1025F0000800604908700846007800F0FB00087089
:1026000000205B4908802EE05A48007840F008001E
:102610005849087000205649088024E05348007843
:102620000D2806D15248008840F480405049088067
:1026300019E04E4800784E490988C1F30D014E4A11
:1026400050544B480088401C49490880084600887F
:10265000C72808DD4748007840F008004549087061
:1026600000204349088010BD704770B501214348E0
:10267000FFF74BFC002864D04148008828B140484F
:102680000088401E3E49088006E040F22B103C497D
:10269000088001203B4908703B48008828B13A482F
:1026A0000088401E3849088006E040F22B10364969
:1026B00008800120354908603548008828B1344831
:1026C0000088401E3249088037E0092030490880E0
:1026D00000F0E8FB044600F016FC054601202D49F9
:1026E00008602448007840F002002249087028461B
:1026F00002F06CF828490860204602F067F8274984
:10270000086027482749097840F82140264825498C
:10271000097840F8215023480078401C214908706E
:1027200008460078032801DB0020087000F01CFC3C
:1027300000F0A8FC00F0D6FC00BF01210F48FFF715
:10274000F5FB70BD10B501211848FFF7DEFB48B15D
:102750000848007840F0010006490870012113483C
:10276000FFF7E4FB10BD0000003801405E000020D0
:102770005C0000203900002071010020000C0040A6
:102780005200002056000020540000206400002069
:10279000500000206C000020880000208C000020E9
:1027A0003C0200200001002048020020002C0140D3
:1027B0002DE9F04704460F46002002F007F8804656
:1027C0003946206A01F06DFE8246414601F017FE4F
:1027D000E060E168206801F06AFE8146A06901F0CE
:1027E000F5FF8246E16801F00AFE804601F0FCFF39
:1027F000A0612149E069086020491F48006802F093
:102800006DF805D31E491C48006802F05DF801D23E
:1028100000206060A06901F0D9FF8046616801F086
:1028200046FE0546D4E9030101F03BFE8046A1685F
:1028300001F03DFE0646E06820612946484601F069
:10284000DEFD8046314601F0DAFDE0610D49E069C8
:10285000096802F043F802D20A480068E0610A49B8
:10286000E069096802F030F802D207480068E061C8
:10287000E069BDE8F0870000840000200000A0406F
:102880000000A0C0740000207800002010B50446AD
:1028900042F2107084420ED94021CD48FEF7A9F9CA
:1028A0008021CB48FEF7A7F9A4F51C50103801F0A1
:1028B00096FFC849086242F2107084420ED280210D
:1028C000C348FEF796F94021C148FEF794F942F259
:1028D0001071081B01F083FFBE490862A4F51C506B
:1028E00010380AD14021BA48FEF783F98021B84850
:1028F000FEF77FF90020B749086210BD10B5044605
:1029000042F21070844210D94FF48061B048FEF753
:1029100070F94FF40061AE48FEF76DF9A4F51C5054
:10292000103801F05CFFAC49086242F2107084423A
:1029300010D24FF40061A648FEF75BF94FF48061B6
:10294000A348FEF758F942F21071081B01F047FF47
:10295000A1490862A4F51C5010380CD14FF48061D5
:102960009B48FEF746F94FF400619948FEF741F99C
:1029700000209949086210BD2DE9FE4F0446042548
:102980005A266427DFF854824FF48059384601F004
:102990001DFF4146009001F08AFD834605FB06F1CC
:1029A00001FB09F101FB04F001F010FF5946019011
:1029B00001F0B3FD029001F017FF82465046BDE8DA
:1029C000FE8F2DE9F84F0446854D844E204601F0D8
:1029D000FDFE3146009001F06AFD8346294601F074
:1029E00066FD82467F4901F098FD814601F0FCFEBC
:1029F0008046FFF7C1FF07463846BDE8F88F10B59F
:102A000042F6E060FFF742FF42F6E060FFF776FF34
:102A100010BD10B542F21070FFF738FF42F210708F
:102A2000FFF76CFF642001070887888710BD10B589
:102A3000044642F210716018FFF728FF42F210714D
:102A40006018FFF75BFF10BD10B5044642F210712D
:102A5000081BFFF71BFF42F210716018FFF74EFFD3
:102A600010BD10B5044642F210716018FFF70EFF5A
:102A700042F21071081BFFF741FF10BD10B504466C
:102A800042F21071081BFFF701FF42F21071081BA0
:102A9000FFF734FF10BD2DE9F05F04460D46524E9E
:102AA000304601F0A1FE834601F090FE82462146A9
:102AB00001F0FDFC814601F097FE0746304601F02B
:102AC00093FE834601F082FE8246294601F0EFFC28
:102AD000814601F089FE804642F210703844FFF7CB
:102AE0000DFF42F210704044FFF7D0FEBDE8F09FAA
:102AF0002DE9F05F04460D4642F21070FFF797FF94
:102B000042F210716018FFF7C1FE42F210716018B6
:102B1000FFF7F4FE284601F067FE0646FFF72CFF9C
:102B20003249086032480068012812D1002030493B
:102B30000860304801683048006801F060FC2E49A8
:102B400008602E4801682E48006801F058FC2C49A6
:102B500008602B4801682848006801F050FC834653
:102B60004FF0804101F0D9FC81462048006801F017
:102B70002DFE8246494601F094FC064601F061FEB6
:102B800021F00041074600221E4B01F06DFE14D9D2
:102B90001B4801681848006801F031FC80464FF07E
:102BA000804101F0BAFC06461048006801F00EFEB4
:102BB0000746314601F088FE08D800200E4908601B
:102BC0000F4908601049086010490860BDE8F09F8F
:102BD00000100140B8000020DC000020C3F5484090
:102BE000004088430000B443986E89419C00002057
:102BF0006C00002088000020900000208C00002045
:102C00009400002000407F40980000205A000020DF
:102C10004FF0E021096921F004014FF0E022116139
:102C2000C21700EB5272C2F3C7023F4B1A7019462B
:102C3000097801EB4102C2EBC1114FF6FF7202EAC3
:102C4000C1013A4A118070470146384A12884A4306
:102C50004FF0E0235A6100229A6101221A6100BFFD
:102C60004FF0E022106910F0010F02D010F4803F05
:102C7000F6D000224FF0E0231A619A6170470146B6
:102C8000294A12784A434FF0E0235A6100229A61A0
:102C900001221A6100BF4FF0E022106910F0010F0D
:102CA00002D010F4803FF6D000224FF0E0231A61EA
:102CB0009A61704730B51E48006842F21072B0FB4E
:102CC000F2F1B1F1807F00D31DE021F07F40401E82
:102CD0004FF0E022506150170F22002807DA130747
:102CE0001D0E144B00F00F04241F1D5503E01307A5
:102CF0001C0E114B1C5400BF00204FF0E0229061CD
:102D00000720106100BF30BD10B50C480068401CA2
:102D10000A49086008460068592803DD0020086059
:102D2000FEF711F810BD0000A0000020A200002056
:102D30000000002018ED00E000E400E0A400002006
:102D4000002007E00021FE4A42F82010FD4A42F828
:102D50002010401C0328F5D30121FB4A1170FB4AC7
:102D60001170704700B587B001210420FEF779F992
:102D700001210820FEF768F96846FDF718FFC0201A
:102D8000ADF8000004208DF8030003208DF8020048
:102D90006946EF48FDF782FEEE48FEF7BDF904A84C
:102DA000FEF7BAFD0020ADF8100043F6FF70ADF855
:102DB00014000020ADF81600ADF8120004A9E54893
:102DC000FEF77EFA00231A460321E248FEF787FE4B
:102DD00001A8FEF7B4FD0620ADF80C0001A9DD48FE
:102DE000FEF701FD0121DB48FFF78CF801221146B7
:102DF000D848FEF7DCFDFFF7A3FF0121D548FEF719
:102E0000BBFD07B000BD00B587B001210220FEF771
:102E100028F901210420FEF717F96846FDF7C7FEDF
:102E2000C020ADF8000004208DF8030003208DF8C9
:102E300002006946C848FDF731FEC848FEF76CF944
:102E400004A8FEF769FD0020ADF8100043F6FF70FE
:102E5000ADF814000020ADF81600ADF8120004A97A
:102E6000BE48FEF72DFA00231A460321BB48FEF7A1
:102E700036FE01A8FEF763FD0620ADF80C0001A99F
:102E8000B648FEF7B0FC0121B448FFF73BF8012239
:102E90001146B248FEF78BFD0121B048FEF76CFDEC
:102EA00007B000BD70B5A8480078F0B9AC480188FB
:102EB000A848243003880020A94E3080A54824303B
:102EC000008805B2A348008800F01000102805D142
:102ED000A4480068181AC0EB813204E0A1480068D9
:102EE000181A00EB8132144609E00020964E30702B
:102EF00000249B4E308097482430008805B29948C2
:102F0000056020B270BD70B590480078F0B9964861
:102F100001889248243003880020934E30808F48E7
:102F20002430008805B28D48008800F01000102879
:102F300005D18E480068181AC0EB813204E08B4836
:102F40000068181A00EB8132144609E000207F4E19
:102F500030700024844E308080482430008805B2D0
:102F60008248056020B270BD2DE9F05F00210C465B
:102F70000D460E460F468A460DE0714850F82A006D
:102F8000861947EBE0776F4850F82A100C1945EB8B
:102F9000E1750AF1010ABAF1030FEED3032200230F
:102FA0002046294601F0FEF904460D46032200237F
:102FB0003046394601F0F6F906460F46C8224FF072
:102FC000000C2346A3FB023B05FB02B104FB0C10E3
:102FD0003C220021A3FB028B00FB02B003FB010992
:102FE0004FF480420B464046494601F0DBF9044667
:102FF000C82300213046A0FB03CB07FB03B206FB2E
:1030000001203C22ACFB028B00FB02B00CFB01094F
:103010004FF480420B464046494601F0C3F906464C
:1030200030B25349086020B25249086050480068E5
:10303000514908604F48006850490860BDE8F09F5A
:1030400010B501214348FEF75DFF45480088A0F513
:103050007F41FF3904D042480088401C4049088025
:1030600010BD10B501213D48FEF74CFF3E480088D9
:10307000A0F57F41FF3904D03B480088401C3A4905
:10308000088010BD70B53D4800683B490968401A8A
:103090003B4908603648006801F0A1FB0546294617
:1030A0003848FFF785FB044637480168204601F0A1
:1030B000A6F93549086035493348006801F00EFC2F
:1030C00002D232483049086000212F48006801F0E0
:1030D000FBFB02D200202C4908602B4800682C49D9
:1030E000086070BD70B52448006824490968401A1A
:1030F000234908601F48006801F071FB0546294616
:103100002448FFF755FB044623480168204601F098
:1031100076F9214908601D491F48006801F0DEFB6F
:1031200002D21A481C49086000211B48006801F0BF
:10313000CBFB02D2002018490860174800682DE038
:103140003C02002048020020010100200201002072
:10315000000C01400008004000080140000400404D
:10316000260100201C010020240100202001002055
:103170000C01002010010020B0000020B40000204D
:1031800018010020DC00002004010020000061453F
:1031900014010020B80000200801002001F03DFBD0
:1031A0004FF0804108870448006801F036FB4FF07B
:1031B0008041888770BD00001401002008B50121FE
:1031C0005C20FDF741FF4FF44C60ADF8000010208B
:1031D0008DF8030003208DF8020069461848FDF7BA
:1031E0005DFC4FF4C850ADF8000048208DF8030096
:1031F00003208DF8020069461248FDF74FFC4FF49A
:103200007840ADF8000048208DF8030003208DF8C9
:10321000020069460C48FDF741FC2020ADF8000093
:1032200010208DF8030003208DF80200694607483E
:10323000FDF734FC20210548FDF7DBFC08BD00004C
:10324000001001400008014000180140000C01403E
:1032500008B500214FF00060FDF7ACF84FF4C060F6
:10326000FDF770F825208DF8000001208DF8010091
:1032700003208DF8020001208DF803006846FDF759
:1032800066F81D208DF8000000208DF80100012057
:103290008DF802008DF803006846FDF758F81E20EF
:1032A0008DF8000000208DF801008DF8020001204B
:1032B0008DF803006846FDF74AF832208DF80000CB
:1032C00000208DF8010002208DF8020001208DF809
:1032D00003006846FDF73BF819208DF80000012037
:1032E0008DF8010004208DF8020001208DF8030004
:1032F0006846FDF72CF808BD10B5FDF73BFD4FF40F
:103300008030FDF757FDFDF794FD0446012C24D1D4
:103310001020FDF799F80220FDF782F80020FDF754
:10332000CEFD0020FDF7DDFDA002FDF7D1FD4FF43D
:10333000E0112004FDF7A6FD0120FDF7AFFD00BF61
:103340003920FDF75AFD0028FAD00220FDF7A9FD2B
:1033500000BFFDF7AFFD0828FBD110BD00B589B057
:1033600001210846FDF77DFE01210420FDF76CFEDA
:103370000620ADF8200018208DF8230003208DF8DA
:10338000220008A95548FDF789FB40F60F60ADF80B
:1033900018000020ADF81400ADF81A00ADF81600C2
:1033A00005A94FF08040FDF78BFF6020ADF80400C9
:1033B0000020ADF80C000120ADF806006420ADF847
:1033C0000A0001A90007FEF747F80821C806FEF722
:1033D00019FC6020ADF804000020ADF80C000120BD
:1033E000ADF806006420ADF80A0001A90007FDF75A
:1033F000E6FF0821C806FEF7F8FB01218807FEF763
:10340000BBFB01218807FEF7B7FA09B000BD0EB576
:1034100001210820FDF725FE4FF47A60ADF8040085
:103420000820ADF800000020ADF80600ADF802005D
:1034300069462B48FDF744FF01212948FEF762FD4C
:10344000012211462648FEF7B2FA01212448FEF770
:1034500093FA0EBD0EB501211020FDF702FE2148A2
:10346000FDF75AFE4FF6FF70ADF8040040F267100A
:10347000ADF800000020ADF80600ADF80200694686
:103480001848FDF71DFF01211648FEF73BFD0EBD54
:103490000EB50121C802FDF7D7FD1348FDF73CFE2C
:1034A0004B20ADF8040041F61F40ADF800000020AD
:1034B000ADF80600ADF8020069460B48FDF700FFC5
:1034C00001210948FEF71EFD012211460648FEF7BC
:1034D0006EFA01210448FEF74FFA0EBD00080140C4
:1034E000000C004000100040002C014006E00021CC
:1034F00001E04A1CD1B24829FBDB401E0028F6DC63
:10350000704708B501212020FDF79EFD0120ADF890
:10351000000010208DF8030003208DF8020069469A
:10352000FE48FDF7BBFA0220ADF8000004208DF83C
:1035300003006946F948FDF7B1FA0420ADF8000030
:1035400010208DF8030003208DF802006946F3482F
:10355000FDF7A4FA0820ADF8000004208DF8030060
:103560006946EE48FDF79AFA4FF48070ADF8000016
:1035700010208DF8030003208DF802006946E7480B
:10358000FDF78CFA4FF40070ADF8000004208DF8C0
:1035900003006946E148FDF781FA4FF48060ADF819
:1035A000000010208DF8030003208DF8020069460A
:1035B000DA48FDF773FA4FF40060ADF8000004201C
:1035C0008DF803006946D548FDF768FA4FF480503E
:1035D000ADF8000010208DF8030003208DF80200E4
:1035E0006946CE48FDF75AFA4FF40050ADF8000096
:1035F00004208DF803006946C848FDF74FFA4FF4E0
:103600008040ADF8000010208DF8030003208DF8F5
:1036100002006946C148FDF741FA4FF40040ADF899
:10362000000004208DF803006946BC48FDF736FA17
:103630001020ADF800008DF8030003208DF8020083
:103640006946B648FDF72AFA8020ADF8000004204C
:103650008DF803006946B148FDF720FA08BD10B5A2
:10366000AF48FEF740FC00EB800000EB001040008C
:103670004FF4FA6190FBF1F0AA49088008460088EF
:1036800010BD70B504460025062C4BD2DFE804F0CF
:10369000034B97E3FCFB0421A048FDF7AAFA0A209C
:1036A000FFF724FF04219D48FDF7A5FA00BF08217C
:1036B0009A48FDF784FA0028F9D001219848FEF7CE
:1036C0005BF928E09648FEF70EFC97490988884286
:1036D0000EDD00219248FEF74FF9FFF7C0FF0546C7
:1036E00000218F48FEF7DCFB01209049087012E0B2
:1036F00008218A48FDF763FA68B900218848FEF777
:103700003BF9FFF7ACFF054600218548FEF7C8FBF3
:10371000012086490870854800780028D2D0002012
:10372000824908708BE14FF480717C48FDF761FAA3
:103730000A20FFF7DBFE4FF480717848FDF75BFA53
:1037400000BF4FF400717548FDF739FA0028F8D032
:1037500001217348FEF710F929E07148FEF7C3FB19
:103760007149098888420EDD00216D48FEF704F991
:10377000FFF775FF054600216948FEF791FB012020
:103780006B49087013E04FF400716448FDF717FAB5
:1037900068B900216248FEF7EFF8FFF760FF0546C1
:1037A00000215F48FEF77CFB0120614908706048FA
:1037B00000780028D1D000205D4908703FE14FF427
:1037C00080615648FDF715FA0A20FFF78FFE4FF487
:1037D00080615248FDF70FFA00BF4FF400614F4877
:1037E000FDF7EDF90028F8D001214D48FEF7C4F8A7
:1037F00029E04B48FEF777FB4B49098888420EDDEC
:1038000000214748FEF7B8F8FFF729FF05460021D9
:103810004348FEF745FB01204649087013E04FF48A
:1038200000613E48FDF7CBF968B900213C48FEF73E
:10383000A3F8FFF714FF054600213948FEF730FBD7
:1038400001203C4908703B4800780028D1D0002076
:1038500038490870F3E04FF480513048FDF7C9F95A
:103860000A20FFF743FE4FF480512C48FDF7C3F9BF
:1038700000BF4FF400512948FDF7A1F90028F8D006
:103880000121274801E092E034E0FEF775F829E0D5
:103890002348FEF728FB2449098888420EDD0021D1
:1038A0001F48FEF769F8FFF7DAFE054600211C48BD
:1038B000FEF7F6FA01202049087013E04FF400519A
:1038C0001648FDF77CF968B900211548FEF754F851
:1038D000FFF7C5FE054600211148FEF7E1FA012079
:1038E00015490870144800780028D1D000201249EA
:1038F0000870A4E04FF480410848FDF77AF90A20E7
:10390000FFF7F4FD4FF480410448FDF774F900BF60
:103910004FF400410148FDF752F90FE00014014057
:1039200000100040360100202C0100202E01002054
:103930002F01002030010020310100200028E7D0B5
:1039400001216648FEF718F829E06448FEF7CBFA33
:103950006349098888420EDD00216048FEF70CF8B3
:10396000FFF77DFE054600215C48FEF799FA01202D
:103970005C49087013E04FF400415B48FDF71FF904
:1039800068B900215548FDF7F7FFFFF768FE0546C7
:1039900000215248FEF784FA01205249087051482C
:1039A00000780028D1D000204E49087047E010214F
:1039B0004D48FDF71EF90A20FFF798FD10214A48EF
:1039C000FDF719F900BF80214748FDF7F8F80028F6
:1039D000F9D001214148FDF7CFFF28E03F48FEF72D
:1039E00082FA3F49098888420EDD00213B48FDF7F5
:1039F000C3FFFFF734FE054600213848FEF750FAB2
:103A000001203A49087012E080213748FDF7D7F8C5
:103A100068B900213148FDF7AFFFFFF720FE0546EA
:103A200000212E48FEF73CFA0120304908702F484B
:103A300000780028D2D000202C49087000BF00BFB9
:103A4000284670BD10B5002401212748FDF7D1F8A4
:103A50000F20FFF74BFD01212348FDF7CCF800BFF5
:103A600002212148FDF7ABF80028F9D001211B48BD
:103A7000FDF782FF28E01948FEF735FA1849098852
:103A800088420EDD00211548FDF776FFFFF7E7FDC0
:103A9000044600211148FEF703FA0120144908707A
:103AA00012E002211048FDF78AF868B900210B489E
:103AB000FDF762FFFFF7D3FD044600210748FEF73C
:103AC000EFF901200A490870094800780028D2D08F
:103AD000002007490870204610BD0000001000407B
:103AE0002C0100203201002000140140330100208D
:103AF0003401002000B585B001210520FDF7A4FAAE
:103B000001218803FDF7A0FA5148FEF713FA4FF49C
:103B10000070ADF8100018208DF8130003208DF808
:103B2000120004A94B48FCF7B9FF4FF48060ADF8D0
:103B3000100048208DF8130004A94648FCF7AEFF9A
:103B40004FF4E13000900020ADF80400ADF806001D
:103B5000ADF80800ADF80C000C20ADF80A0069467D
:103B60003B48FEF72AFA012240F225513848FEF779
:103B7000BCFA01213648FEF7ACFA40213448FEF782
:103B800090FB05B000BD00B585B001214804FDF7EC
:103B900068FA01212120FDF757FA01210820FDF7DD
:103BA0004CF82020ADF8100018208DF813000320E9
:103BB0008DF8120004A92848FCF770FF4020ADF8EA
:103BC000100048208DF8130004A92348FCF766FF75
:103BD0004FF4E13000900020ADF80400ADF806008D
:103BE000ADF80800ADF80C000C20ADF80A006946ED
:103BF0001A48FEF7E2F9012240F225511748FEF774
:103C000074FA01211548FEF764FA40211348FEF7C3
:103C100048FB05B000BD70B504460D46E1B20C4846
:103C2000FEF7C4FA00BF80210948FEF72DFB0028EB
:103C3000F9D0204670BD10B5044600BF20210448CD
:103C4000FEF722FB0028F9D00148FEF7B3FA10BDB9
:103C500000380140000801400014014000440040C9
:103C600003B599B0FE480068FE4909684843FE491B
:103C7000096848430D9000F0A9FD0F90FB480068CB
:103C800000F0A4FD0D90FA4801680D9800F00FFCBB
:103C90000E900F9900F041FC1790F64801681798B4
:103CA00000F03BFC1690DDE9190100F0A8FB4FF095
:103CB00080410F9000F031FC1590DDE9190100F012
:103CC000F3FB1490EC48006800F08EFD1390EB4875
:103CD000006800F089FD1290E748006800F084FD5C
:103CE0000F90002801DB0F9801E00F9840421190DF
:103CF000E248006800F078FD0F90002801DB0F9883
:103D000001E00F98404210901398002875DD12983A
:103D10000028FBDD1699149800F0C9FBD84908600B
:103D2000179800F08EFDCDE90801D548006800F035
:103D300088FDCDE9000101F06DFBCDE90401159886
:103D400000F07FFDCDE90201DDE9042300F0CCFCA9
:103D5000CDE90601DDE9082300F0C6FCCDE90C0140
:103D6000C848006800F06DFDCDE90A01DDE90C23CB
:103D700000F013FCCDE90E0100F08AFDC149086096
:103D8000DDE91210884239DD179800F05AFDCDE9BF
:103D90000801BB48006800F054FDCDE9000101F0C6
:103DA000E3FACDE90401159800F04BFDCDE90201DD
:103DB000DDE9042300F098FCCDE90601DDE90823E4
:103DC00000F092FCCDE90C01AF48006800F039FD2D
:103DD000CDE90A01DDE90C2300F080FCCDE90E01FC
:103DE00000F056FDA8490860A5480168A74800688A
:103DF00000F005FBA5490860CAE238E0179800F01A
:103E000020FDCDE908019E48006800F01AFDCDE9CB
:103E1000000101F0A9FACDE90401159800F011FDA7
:103E2000CDE90201DDE9042300F05EFCCDE90601E5
:103E3000DDE9082300F058FCCDE90C019248006848
:103E400000F0FFFCCDE90A01DDE90C2300F0A5FB41
:103E5000CDE90E0100F01CFD8B490860884801681F
:103E60008A48006800F01DFB8849086090E21398BA
:103E7000002875DA12980028FBDA1699149800F0D9
:103E800016FB7F490860179800F0DBFCCDE90801BC
:103E90007B48006800F0D5FCCDE9000101F0BAFADA
:103EA000CDE90401159800F0CCFCCDE90201DDE973
:103EB000042300F019FCCDE90601DDE9082300F038
:103EC00013FCCDE90C016F48006800F0BAFCCDE9A5
:103ED0000A01DDE90C2300F001FCCDE90E0100F040
:103EE000D7FC68490860DDE91010884239DD179871
:103EF00000F0A7FCCDE908016148006800F0A1FCD2
:103F0000CDE9000101F030FACDE90401159800F087
:103F100098FCCDE90201DDE9042300F0E5FBCDE9E1
:103F20000601DDE9082300F0DFFBCDE90C0156486E
:103F3000006800F086FCCDE90A01DDE90C2300F001
:103F4000CDFBCDE90E0100F0A3FC4F4908604C48C1
:103F500001684E48006800F0A4FA4C49086017E276
:103F600038E0179800F06DFCCDE90801444800687E
:103F700000F067FCCDE9000101F0F6F9CDE904019C
:103F8000159800F05EFCCDE90201DDE9042300F0A4
:103F9000ABFBCDE90601DDE9082300F0A5FBCDE987
:103FA0000C013948006800F04CFCCDE90A01DDE95C
:103FB0000C2300F0F2FACDE90E0100F069FC324961
:103FC00008602F4801683148006800F018FA2F494E
:103FD0000860DDE1139800287EDA129800287BDD66
:103FE0001699149800F063FA25490860DDE910106D
:103FF00088427CDA179800F024FCCDE908012048BB
:10400000006800F01EFCCDE9000101F0ADF9CDE93A
:104010000401159800F015FCCDE90201DDE9042347
:1040200000F062FBCDE90601DDE9082300F05CFB4E
:10403000CDE90C011448006800F003FCCDE90A0149
:10404000DDE90C2300F0A9FACDE90E0100F020FC17
:104050000D490860179800F0F4FBCDE9080117E05E
:1040600058010020480100204C0100205001002090
:1040700054010020440100203000002034000020C2
:104080005C0100203C01002038010020400100209C
:10409000C048006800F0D5FBCDE9000101F0BAF995
:1040A000CDE90401159800F0CCFBCDE90201DDE972
:1040B000042300F019FBCDE90601DDE9082300F037
:1040C00013FBCDE90C01B448006800F0BAFBCDE960
:1040D0000A01DDE90C2301E072E008E000F05DFA7E
:1040E000CDE90E0100F0D4FBAB4908605FE0179802
:1040F00000F0A7FBCDE90801A648006800F0A1FB8D
:10410000CDE9000101F030F9CDE90401159800F086
:1041100098FBCDE90201DDE9042300F0E5FACDE9E1
:104120000601DDE9082300F0DFFACDE90C019B4828
:10413000006800F086FBCDE90A01DDE90C2300F000
:10414000CDFACDE90E0100F0A3FB94490860179861
:1041500000F077FBCDE908018E48006800F071FBA4
:10416000CDE9000101F056F9CDE90401159800F000
:1041700068FBCDE90201DDE9042300F0B5FACDE9E1
:104180000601DDE9082300F0AFFACDE90C01824811
:10419000006800F056FBCDE90A01DDE90C2300F0D0
:1041A0009DFACDE90E0100F073FB7B490860794868
:1041B00001687B48006800F074F979490860E7E01D
:1041C000139800287EDD129800287BDA169914983F
:1041D00000F06DF96F490860DDE91010884260DD7C
:1041E000179800F02EFBCDE908016A48006800F03E
:1041F00028FBCDE9000101F0B7F8CDE904011598DD
:1042000000F01FFBCDE90201DDE9042300F06CFAA8
:10421000CDE90601DDE9082300F066FACDE90C01DD
:104220005E48006800F00DFBCDE90A01DDE90C23D2
:1042300000F054FACDE90E0100F02AFB574908605E
:10424000179800F0FEFACDE908015248006800F026
:10425000F8FACDE9000101F0DDF8CDE90401159887
:1042600000F0EFFACDE90201DDE9042300F03CFAA9
:10427000CDE90601DDE9082300F036FACDE90C01AD
:104280004548006800F0DDFACDE90A01DDE90C23BC
:1042900000F083F9CDE90E0100F0FAFA3E4908601A
:1042A00061E0179800F0CDFACDE9080139480068BF
:1042B00000F0C7FACDE9000101F056F8CDE904019C
:1042C000159800E058E000F0BCFACDE90201DDE904
:1042D000042300F009FACDE90601DDE9082300F026
:1042E00003FACDE90C012D48006800F0AAFACDE9E7
:1042F0000A01DDE90C2300F050F9CDE90E0100F0D0
:10430000C7FA26490860179800F09BFACDE9080122
:104310002048006800F095FACDE9000101F07AF834
:10432000CDE90401159800F08CFACDE90201DDE930
:10433000042300F0D9F9CDE90601DDE9082300F0F6
:10434000D3F9CDE90C011448006800F07AFACDE900
:104350000A01DDE90C2300F0C1F9CDE90E0100F0FE
:1043600097FA0D4908600B4801680D48006800F095
:1043700046F80B4908600BE00948006808490860E6
:10438000064800680549086003480068024908605B
:104390001BB000BD5C0100203C0100203801002062
:1043A000400100202DE9F04100242546002905DACE
:1043B00001240027D0EB070067EB0101002B05DA91
:1043C0000027D2EB0702012567EB030300F090FA08
:1043D00086460E4617469C46AC4204D00025D0EBDC
:1043E000050E65EB010624B10020D2EB000760EB5F
:1043F000030C704631463A466346BDE8F081F0B49E
:1044000080EA0102D40F4200B2EB410F02D2024611
:10441000084611464A0042D0C30DDDB2C1F3C7526F
:10442000AD1A202D35DAC1F3160141F4000204B1B2
:104430005242C5F1200602FA06F12A411044B3EBBC
:10444000D05F23D0C4B1012DA0EBC35009DCF0BC78
:104450004FF0004202EAC35200F50000DBB200F068
:10446000A2BA400000F1807000EBC350A0F1807050
:1044700040EAD170490009E0490841EAC071A0EB67
:10448000C35000F50000400800EBC350F0BC00F042
:1044900081BA6142012202EB4101001BF6E7F0BC48
:1044A000704781F00041AAE780F00040A7E780EA6A
:1044B000010210B502F00043400026D04A0023D08C
:1044C0004FEA106101EB1261C0F35600C2F35602CD
:1044D00040F4000042F40002A0FB0220A1F17F01A1
:1044E0004FEA0040140401D000F1010050EA1240EC
:1044F00001D44000491EC2B20C0604EBD010401C8F
:104500004008802A02D003E0002010BD20F0010006
:10451000002900DA0020184310BD30B480EA0102FF
:1045200002F0004530F0004221F0004015D0A0B16B
:10453000C0F3C753C2F3C754C2F31601C0F3160049
:10454000E41A41F4000140F400027D34914201D3A9
:10455000641C00E04900002C02DA30BC00207047E7
:104560004FF400000023914201D3891A034340080D
:104570004FEA4101F7D151B1914202D14FF00041D0
:1045800005E002D24FF0010101E06FF0010103EB01
:10459000C450284430BC00F0FDB92DE9FE4F8046E0
:1045A00081EA0300C00F0C46009021F0004123F087
:1045B0000045B8EB0200A94105D24046214690468D
:1045C0001C460B46024623F00040104304D14046EF
:1045D000214603B0BDE8F08F270DC7F30A00C3F3EF
:1045E0000A510290401A0190402866DAC3F3130082
:1045F00040F4801B0098924620B10023D2EB030ABE
:1046000063EB0B0B01985946C0F14002504600F095
:10461000A0F906460D4650465946019A00F0A8F901
:1046200010EB08006141002487EA115284EAE77325
:104630001A433BD0009A3AB3019A012A4FEA075233
:1046400010DC001B61EB02014FF0004202EA07524E
:10465000CDE90042001C41F5801132462B4600F0A6
:10466000DCF9B6E7001B61EB0201001C41F5801389
:1046700000185B412018A2F5001747EB030140EA40
:10468000D570B6196D4111E06D084FEA360645EA5E
:10469000C0754FEA0752001B61EB0201001C41F597
:1046A000801149084FEA30000019514132462B462B
:1046B00003B0BDE8F04F00F0A3B90098012240001C
:1046C0000023D0EB020263EBE073009821464FEA2F
:1046D000E074B8EB000061EB0401E9E783F000430C
:1046E0005BE781F0004158E72DE9FE4F81EA0304C2
:1046F00004F0004421F0004100944FF0000B23F03F
:10470000004350EA010402D052EA030404D100201D
:10471000014603B0BDE8F08FC3F30A54C1F30A5554
:104720002C44A4F2F3340194A0FB0254C1F313010E
:1047300041F48011C3F3130343F4801301FB0244DB
:1047400000FB034E840A970A44EA815447EA8357E0
:10475000A4FB076802958D0A05FB07854FEA932C99
:1047600004FB0C542705029D4FEA065847EA16370A
:10477000B5EB08056EEB070C870E920E47EA811722
:1047800042EA8312A7FB0201B6EB0B0164EB0004C3
:104790002B0D43EA0C335E1844EB1C50DA465146AD
:1047A000E7FB0201C5F313044FEA0B3343EA14534A
:1047B0004FEA0432019C43EA0603A4F10C0402947C
:1047C000009CCDE900B400F028F9A2E7C10F80EA0F
:1047D000E0700844CA079623002100F0E4B896234D
:1047E0000022114600F0DFB800F0004220F0004047
:1047F000C10DC0F3160040F400007F2901DA00204B
:104800007047962903DCC1F19601C84001E0963952
:104810008840002AF4D04042704720F00040C10D8B
:10482000C0F3160040F400007F2901DA0020704731
:10483000962903DCC1F19601C8407047963988403B
:10484000704700F0004230F000400AD0C10D01F581
:104850006071C0F3160042EA0151C20840071143DB
:10486000704700200146704730B5002904DB4FF047
:104870000044404264EB0101002B04DB4FF0004494
:10488000524264EB03038B4208BF824230BD0000FA
:1048900001F0004330B421F0004150EA010206D09B
:1048A0000A0DA2F56072C1F31301002A02DC30BCCC
:1048B00000207047440F44EAC104C100E01830BC36
:1048C00000EBC25000F066B8002801DBC0F10040E8
:1048D000002901DBC1F1004181427047002801DB62
:1048E000C0F10040002901DBC1F10041884270475E
:1048F0002DE9F05F0546002092469B468846064615
:10490000814640241BE0284641464746224600F0A7
:104910006FF953465A46C01A914110D311461846B2
:10492000224600F016F82D1A67EB01084F46224682
:104930000120002100F00DF817EB00094E41201E68
:10494000A4F10104DFDC484631462A464346BDE86F
:10495000F09F202A04DB203A00FA02F10020704781
:104960009140C2F1200320FA03F3194390407047AD
:10497000202A06DBCB17203A41FA02F043EAE07323
:1049800006E041FA02F3D040C2F120029140084310
:10499000194670470029A8BF7047401C490008BF4E
:1049A00020F00100704710B4B0FA80FC00FA0CF05F
:1049B00050EA010404BF10BC704749B1CCF1200497
:1049C00021FA04F411FA0CF118BF01212143084324
:1049D000A3EB0C01CB1D0106000A002BBEBF00207B
:1049E00010BC704700EBC35010440029A4BF10BC9A
:1049F0007047401C490008BF20F0010010BC704700
:104A000010B5002B08DA401C41F1000192185B41FF
:104A10001A4301D120F0010010BD2DE9F04D92465E
:104A20009B4611B1B1FA81F202E0B0FA80F2203275
:104A30009046FFF78EFF04460F4640EA0A0041EA1F
:104A40000B0153465A46084303D120463946BDE878
:104A5000F08D114653EA010015D0C8F140025046CE
:104A600000F0C6F805460E46504659464246FFF746
:104A700070FF084301D0012000E00020054346EA12
:104A8000E0762C4337430A984FEA4453A0EB0800E2
:104A90004FEAD4240A304FF0000244EA47544FEA68
:104AA000D72502D500200146D1E70105101969413B
:104AB000DDE9084500196941BDE8F04DA0E72DE9A1
:104AC000F04D81EA030404F0004B21F00045144648
:104AD0004FF0000A23F0004150EA050220D054EACA
:104AE00001021DD0C5F30A570246C5F31303C1F3F3
:104AF0001300C1F30A5640F4801543F48013A7EB6A
:104B00000608101BD64608F2FD3873EB050002D3E9
:104B100008F1010801E092185B41B8F1000F03DAD7
:104B200000200146BDE8F08D00204FF480110646BC
:104B300084460EE0171B73EB050705D3121B63EBCE
:104B4000050306434CEA010C49084FEA300092186D
:104B50005B4150EA0107EDD152EA030012D082EA2C
:104B6000040083EA0501084303D100224FF000430B
:104B700008E0101BAB4102D20122002302E06FF0DB
:104B8000010253101AEB06004CEB085110EB0A001F
:104B900041EB0B01BDE8F04DFFF732BF70B521F0DE
:104BA000004303430CD0C1F30A550024D5EB0405A0
:104BB00064EB0403D617AD1AB34102DB00200146B3
:104BC00070BD201841EB025170BD0000064C074D2E
:104BD00006E0E06840F0010394E8070098471034CD
:104BE000AC42F6D3FBF7A8FAE855000808560008CF
:104BF000202A04DB203A21FA02F00021704721FA32
:104C000002F3D040C2F12002914008431946704798
:104C10000EB5C10F80EAE0700844CA07002140F2D7
:104C200033438DE80E000A460B46FFF7F6FE03B04D
:104C300000BD0EB540F2334102910021CDE90011D3
:104C40000A460B46FFF7E9FE03B000BD70B5C1F39D
:104C50000A5201F000450024C1F3130140F2FF3372
:104C600041F480119A4201DA002070BD40F23343D2
:104C70009A42A2F2334203DC5242FFF7B9FF00E04E
:104C800090402C43F1D0404270BD70B501EB02045E
:104C900010F8015B15F0070301D110F8013B2A1150
:104CA00006D110F8012B03E010F8016B01F8016B3D
:104CB0005B1EF9D12B0705D40023521E0FD401F837
:104CC000013BFAE710F8013B02F10202A1EB0303FA
:104CD00003E013F8015B01F8015B521EF9D5A14214
:104CE000D6D3002070BD490050EAC12018BF04206F
:104CF0004A0D18BF40F0010040F2FF72B2EB515F65
:104D000008BF40F00200012808BF052070470000DE
:104D10002DE9F74F144696B00021C4E90211179906
:104D2000089121F00045CA498D4206DC1799C4E973
:104D3000000119B00020BDE8F08FC649DFF818A3C4
:104D4000A9423CDD0899C54E0029C54FC54A1799AF
:104D5000534619DDFFF7C2FC554506D0C24AC34B86
:104D6000FFF7BCFCC4E900010AE04FF0D352BF4B8F
:104D7000FFF7B4FC32463B46FFF7B0FCC4E9000144
:104D800019B00120BDE8F08FFFF707FC554506D0AC
:104D9000B54AB64BFFF701FCC4E900010AE04FF049
:104DA000D352B24BFFF7F9FB32463B46FFF7F5FB18
:104DB000C4E9000119B04FF0FF30BDE8F08FAC49F5
:104DC000A942179978DB21F000488346A94AAA4BEB
:104DD0004146FFF789FC0022A84BFFF7DEFBFFF7F7
:104DE00035FF0990FFF714FF06460F469D4A5346CC
:104DF000FFF77AFC5A464346FFF773FC80468A4623
:104E0000994A9A4B30463946FFF76EFC2A0D012528
:104E10000B9242465346FFF764FC032DC4E90001A0
:104E200039D00B98C1F30A51401A05EB45111139DD
:104E3000814230DA9248C346784400EB0510CDF841
:104E40001CA00C90D0E9002330463946FFF74CFCFB
:104E5000CDE9020102460B4658460799FFF73EFC92
:104E600080468A4602460B4658460799FFF736FCAD
:104E7000DDE90223FFF732FC83460C9803913946A3
:104E8000D0E902233046FFF72FFC5A46039BFFF779
:104E900025FC6D1CBDE708980028A2BF099819B031
:104EA000BDE8F08F616881F000416160099819B038
:104EB0004042BDE8F08FFFE7C1F3130141F48011D8
:104EC0000E911799C1F30A51A1F2F532511102F076
:104ED0001F08C8F12002129200220C920D92694A1A
:104EE0007A4402EB810101F1140C0DA95FF0060771
:104EF000DCF80020DCF8045002FA08F3129AD1F82A
:104F000000A025FA02F21A430E9BA2FB0356A2FB55
:104F100000329A4415449A4534BF4FF0010B4FF0CC
:104F2000000B51F8043C05EB0B0E7344954234BF63
:104F3000012200221644BBF1000F02D0AB4202D97D
:104F400003E0AB4201D2012200E000223244C1F86A
:104F500000A041E90223091FACF1040C7F1EC7D158
:104F60000898DDE90A6500F10050800F119008985B
:104F7000099F8000FFF74CFE80468A463846FFF7BF
:104F800058FE6FF01D02FFF709FE074630460591F7
:104F9000FFF74FFE6FF03D02FFF700FECDE9031073
:104FA0002846FFF746FE6FF05D02FFF7F7FD064665
:104FB00002460B460191DDE90310FFF7EEFA3A468F
:104FC000059BFFF7EAFA42465346FFF7E6FA002050
:104FD0000D46834642465346FFF780FB3A46059B03
:104FE000FFF77CFBDDE90332FFF778FB3246019BDC
:104FF000FFF777FBDFF89480234A4346FFF774FB03
:1050000006460F46224A234B58462946FFF76CFBBB
:1050100032463B46FFF7C1FA0F4606464FF0A8421C
:10502000434658462946FFF75FFB32463B46FFF7AB
:10503000B4FA179A12F0004F04D0119A81F000418F
:1050400052421192C4E90001119819B0BDE8F08FE5
:10505000FB21E93F7CD90240FB21F93F7370032E0D
:105060008A19A33B000040543163621A61B4D03DF9
:10507000FB21394183C8C96D305FE43F0000E03F48
:10508000BC06000044060000182D4454FB21F93DE5
:105090003326A611460B113C2DE9FF4D21F00048A7
:1050A00007460C46B8F1795F08DAFFF7CFFD002814
:1050B00001BF0020324904B0BDE8F08D3A462346D6
:1050C00010461946FFF710FB054602462D480E46CE
:1050D0000B460621784400F05DF82A463346FFF778
:1050E00003FBDDE9022382468B4638462146FFF763
:1050F000FBFA04460F4652465B4628463146FFF708
:10510000F3FA22463B46FFF7E9FA07468A464FF094
:10511000FF3228463146FFF741FD1B4A90450ADA27
:105120003A465346FFF7DAFA04B00022BDE8F04DE4
:10513000134BFFF7D6BA154A4245A8BFA8F500158C
:105140004FF00004B8BF124D22462B46FFF7C6FAB7
:105150000646884622462B4600200949FFF7BEFA3C
:1051600004460D463A46534630464146FFF7B6FAE6
:1051700004B022462B46BDE8F04DFFF7B2BA00005E
:105180000000F03FF00300003333D33F0000E93F5D
:105190000000D23F2DE9F0414F1E00EBC70104464D
:1051A000D1E9000115461E4637F006020DD02A4609
:1051B0003346FFF799FA7F1E04EBC703D3E90023B8
:1051C000FFF7EBF937F00602F1D1022F25D0042FBB
:1051D00013D0062F18BFBDE8F0812A463346FFF7EB
:1051E00083FAD4E90A23FFF7D8F92A463346FFF7B2
:1051F0007BFAD4E90823FFF7D0F92A463346FFF7B4
:1052000073FAD4E90623FFF7C8F92A463346FFF7B5
:105210006BFAD4E90423FFF7C0F92A463346FFF7B7
:1052200063FAD4E90223FFF7B8F92A463346FFF7B9
:105230005BFAD4E90023BDE8F041FFF7AEB9000006
:105240002DE9FF4D054621F0004084B00C46B0F139
:10525000795F0BDA2846FFF746FD042808BF00F007
:1052600065F8284608B02146BDE8F08D2A460B4671
:105270001046FFF739FA06460F462A462346FFF73F
:1052800033FA804626488A4632463B460521784412
:10529000FFF780FF83461098029160B3214A224BAA
:1052A00040465146FFF720FACDE900015A464046F4
:1052B0005146029BFFF718FA82468846DDE906014F
:1052C0004FF0FF32FFF76AFC52464346FFF706FAFB
:1052D00032463B46FFF708FADDE90623FFF7FEF901
:1052E000DDE90023FFF7FAF908B02A462346BDE8B6
:1052F000F04DFFF7F6B90B465A4630463946FFF7F0
:10530000F3F9084A084BFFF748F942465346FFF7BE
:10531000EBF908B02A462346BDE8F04DFFF73DB94A
:105320002E030000495555555555C5BF024A00206A
:105330001107FFF733BC000001FDFFFF02E008C8C2
:10534000121F08C1002AFAD170477047002001E0FF
:1053500001C1121F002AFBD17047000001490860FB
:10536000704700006001002000B5284B21F000428A
:1053700087B09A42DCBF0022134631DD244B9A42AB
:105380000DD168B94FF00100FFF7E8FF002207B028
:105390001346104611465DF804EBFFF790BB06DBA1
:1053A00007B04FF001025DF804EBFFF7F7BB02AA6C
:1053B000FFF7AEFC10F0030104BF0DF1080CBCE8D0
:1053C0000F000DD0012001290ED0022914D00DF1BB
:1053D000080C0090BCE80F00FFF732FF07B000BDDB
:1053E000FFF75AFE07B000BD0DF1080C0090BCE8B5
:1053F0000F00FFF725FF05E00DF1080CBCE80F00DA
:10540000FFF74AFE07B081F0004100BDFB21E93FF4
:105410000000F07F00B5294B21F0004287B09A428E
:1054200003DC00221346009233E0254B9A420DD153
:1054300068B94FF00100FFF791FF002207B0134653
:10544000104611465DF804EBFFF739BB06DB07B0E9
:105450004FF001025DF804EBFFF7A0BB02AAFFF7D3
:1054600057FC10F003014FF001000DD0012914D0BA
:1054700002291AD00DF1080CBCE80F00FFF70CFE52
:1054800007B081F0004100BD0DF1080C0090BCE8B0
:105490000F00FFF7D5FE07B000BD0DF1080CBCE80A
:1054A0000F00FFF7F9FD07B000BD0DF1080C0090EB
:1054B000BCE80F00FFF7C4FEE2E70000FB21E93F74
:1054C0000000F07F000000004C5555555555A53F94
:1054D0007751C1166CC156BF9015CB19A001FA3E89
:1054E000AD529C804F7E92BEC4B1B4BD9EEE213EB3
:1054F000D43888BEE9FAA8BD00004054FB21F93F2A
:105500003163621A61B4D03D0000601A61B4D03DCD
:105510007370032E8A19A33B0000002E8A19A33B47
:10552000C14920259A837B3900000000000000005B
:105530006E83F9A22915444ED15727FCC0DD34F5FE
:10554000999562DB4190433CAB6351FE61C5BBDE84
:105550003A6E24B7E0D24D42EA2E49061C92D10998
:105560001CEB1DFE3EA729B1F53582E88444BB2E15
:1055700026709CE9417E5FB439D69139F439538362
:105580008B5F849C3B28F9BDFF97F81F0F9805DEC1
:105590008B112FEF1F6D0A5ACF7E366DB709CB27BF
:1055A000663F464F2DEA5F9EC7BA27757BF1E5EB54
:1055B000F739073DEA92528AB15FFB6B085D8D1F98
:1055C000A6F810111111813FD561C119A0012ABFA0
:1055D0007DFEB157E31DC73EEB9C2B8AE6E55ABE24
:1055E0007CD5CF5A3AD9E53D085600080000002086
:1055F000640100008A4C0008605600086401002025
:10560000F40400004C5300081184A24A0468090104
:10561000020304060708090C69101C02040615059C
:10562000222B012B01C9280217311B104104021C37
:10563000C1E96BE98020090AD7233CCDCCCC3D03DE
:1056400018403F092224110A2101D57103171405BE
:105650003540884304325A326415C3F54840A210DD
:0400000508000131BD
:00000001FF
